{
	"data": {
		"bytecode": {
			"linkReferences": {},
			"object": "608060405234801561000f575f80fd5b50604051610d7c380380610d7c833981810160405281019061003191906100d5565b8060095f6101000a81548173ffffffffffffffffffffffffffffffffffffffff021916908373ffffffffffffffffffffffffffffffffffffffff16021790555050610100565b5f80fd5b5f73ffffffffffffffffffffffffffffffffffffffff82169050919050565b5f6100a48261007b565b9050919050565b6100b48161009a565b81146100be575f80fd5b50565b5f815190506100cf816100ab565b92915050565b5f602082840312156100ea576100e9610077565b5b5f6100f7848285016100c1565b91505092915050565b610c6f8061010d5f395ff3fe608060405234801561000f575f80fd5b5060043610610055575f3560e01c8063372500ab14610059578063aff0b29714610063578063c3dfdae61461007f578063c40680f61461009d578063edc15b6b146100bb575b5f80fd5b6100616100ed565b005b61007d60048036038101906100789190610709565b6102a3565b005b610087610549565b60405161009491906107ae565b60405180910390f35b6100a561056e565b6040516100b291906108cc565b60405180910390f35b6100d560048036038101906100d09190610709565b610626565b6040516100e493929190610904565b60405180910390f35b5f5b60038110156102a0573373ffffffffffffffffffffffffffffffffffffffff165f826003811061012257610121610939565b5b600302015f015f9054906101000a900473ffffffffffffffffffffffffffffffffffffffff1673ffffffffffffffffffffffffffffffffffffffff160361028d575f80826003811061017757610176610939565b5b60030201600201544261018a9190610993565b90505f603c825f85146101ae57600185146101a65760016101a9565b60025b6101b1565b60035b60ff166101be91906109c6565b6101c89190610a34565b9050425f84600381106101de576101dd610939565b5b600302016002018190555060095f9054906101000a900473ffffffffffffffffffffffffffffffffffffffff1673ffffffffffffffffffffffffffffffffffffffff1663a9059cbb33836040518363ffffffff1660e01b8152600401610245929190610a64565b6020604051808303815f875af1158015610261573d5f803e3d5ffd5b505050506040513d601f19601f820116820180604052508101906102859190610ac0565b5050506102a0565b808061029890610aeb565b9150506100ef565b50565b5f6002600381106102b7576102b6610939565b5b60030201600101548111610300576040517f08c379a00000000000000000000000000000000000000000000000000000000081526004016102f790610b8c565b60405180910390fd5b5f5b600381101561037a575f816003811061031e5761031d610939565b5b60030201600101548203610367576040517f08c379a000000000000000000000000000000000000000000000000000000000815260040161035e90610bf4565b60405180910390fd5b808061037290610aeb565b915050610302565b505f5b6003811015610545575f816003811061039957610398610939565b5b6003020160010154821115610532575f600160036103b79190610993565b90505b81811115610489575f6001826103d09190610993565b600381106103e1576103e0610939565b5b600302015f82600381106103f8576103f7610939565b5b600302015f82015f9054906101000a900473ffffffffffffffffffffffffffffffffffffffff16815f015f6101000a81548173ffffffffffffffffffffffffffffffffffffffff021916908373ffffffffffffffffffffffffffffffffffffffff1602179055506001820154816001015560028201548160020155905050808061048190610c12565b9150506103ba565b5060405180606001604052803373ffffffffffffffffffffffffffffffffffffffff168152602001838152602001428152505f82600381106104ce576104cd610939565b5b600302015f820151815f015f6101000a81548173ffffffffffffffffffffffffffffffffffffffff021916908373ffffffffffffffffffffffffffffffffffffffff1602179055506020820151816001015560408201518160020155905050610545565b808061053d90610aeb565b91505061037d565b5050565b60095f9054906101000a900473ffffffffffffffffffffffffffffffffffffffff1681565b610576610671565b5f600380602002604051908101604052809291905f905b8282101561061d578382600302016040518060600160405290815f82015f9054906101000a900473ffffffffffffffffffffffffffffffffffffffff1673ffffffffffffffffffffffffffffffffffffffff1673ffffffffffffffffffffffffffffffffffffffff168152602001600182015481526020016002820154815250508152602001906001019061058d565b50505050905090565b5f8160038110610634575f80fd5b600302015f91509050805f015f9054906101000a900473ffffffffffffffffffffffffffffffffffffffff16908060010154908060020154905083565b60405180606001604052806003905b61068861069e565b8152602001906001900390816106805790505090565b60405180606001604052805f73ffffffffffffffffffffffffffffffffffffffff1681526020015f81526020015f81525090565b5f80fd5b5f819050919050565b6106e8816106d6565b81146106f2575f80fd5b50565b5f81359050610703816106df565b92915050565b5f6020828403121561071e5761071d6106d2565b5b5f61072b848285016106f5565b91505092915050565b5f73ffffffffffffffffffffffffffffffffffffffff82169050919050565b5f819050919050565b5f61077661077161076c84610734565b610753565b610734565b9050919050565b5f6107878261075c565b9050919050565b5f6107988261077d565b9050919050565b6107a88161078e565b82525050565b5f6020820190506107c15f83018461079f565b92915050565b5f60039050919050565b5f81905092915050565b5f819050919050565b5f6107ee82610734565b9050919050565b6107fe816107e4565b82525050565b61080d816106d6565b82525050565b606082015f8201516108275f8501826107f5565b50602082015161083a6020850182610804565b50604082015161084d6040850182610804565b50505050565b5f61085e8383610813565b60608301905092915050565b5f602082019050919050565b61087f816107c7565b61088981846107d1565b9250610894826107db565b805f5b838110156108c45781516108ab8782610853565b96506108b68361086a565b925050600181019050610897565b505050505050565b5f610120820190506108e05f830184610876565b92915050565b6108ef816107e4565b82525050565b6108fe816106d6565b82525050565b5f6060820190506109175f8301866108e6565b61092460208301856108f5565b61093160408301846108f5565b949350505050565b7f4e487b71000000000000000000000000000000000000000000000000000000005f52603260045260245ffd5b7f4e487b71000000000000000000000000000000000000000000000000000000005f52601160045260245ffd5b5f61099d826106d6565b91506109a8836106d6565b92508282039050818111156109c0576109bf610966565b5b92915050565b5f6109d0826106d6565b91506109db836106d6565b92508282026109e9816106d6565b91508282048414831517610a00576109ff610966565b5b5092915050565b7f4e487b71000000000000000000000000000000000000000000000000000000005f52601260045260245ffd5b5f610a3e826106d6565b9150610a49836106d6565b925082610a5957610a58610a07565b5b828204905092915050565b5f604082019050610a775f8301856108e6565b610a8460208301846108f5565b9392505050565b5f8115159050919050565b610a9f81610a8b565b8114610aa9575f80fd5b50565b5f81519050610aba81610a96565b92915050565b5f60208284031215610ad557610ad46106d2565b5b5f610ae284828501610aac565b91505092915050565b5f610af5826106d6565b91507fffffffffffffffffffffffffffffffffffffffffffffffffffffffffffffffff8203610b2757610b26610966565b5b600182019050919050565b5f82825260208201905092915050565b7f6e6565642061206869676865722073636f7265000000000000000000000000005f82015250565b5f610b76601383610b32565b9150610b8182610b42565b602082019050919050565b5f6020820190508181035f830152610ba381610b6a565b9050919050565b7f796f752063616e6074207375626d69742063757a2073616d652073636f7265005f82015250565b5f610bde601f83610b32565b9150610be982610baa565b602082019050919050565b5f6020820190508181035f830152610c0b81610bd2565b9050919050565b5f610c1c826106d6565b91505f8203610c2e57610c2d610966565b5b60018203905091905056fea2646970667358221220b51730fd082c1f0c8215c0c20810756416d84ebf5c3e9b89ca915187ff94c48e64736f6c63430008140033",
			"opcodes": "PUSH1 0x80 PUSH1 0x40 MSTORE CALLVALUE DUP1 ISZERO PUSH2 0xF JUMPI PUSH0 DUP1 REVERT JUMPDEST POP PUSH1 0x40 MLOAD PUSH2 0xD7C CODESIZE SUB DUP1 PUSH2 0xD7C DUP4 CODECOPY DUP2 DUP2 ADD PUSH1 0x40 MSTORE DUP2 ADD SWAP1 PUSH2 0x31 SWAP2 SWAP1 PUSH2 0xD5 JUMP JUMPDEST DUP1 PUSH1 0x9 PUSH0 PUSH2 0x100 EXP DUP2 SLOAD DUP2 PUSH20 0xFFFFFFFFFFFFFFFFFFFFFFFFFFFFFFFFFFFFFFFF MUL NOT AND SWAP1 DUP4 PUSH20 0xFFFFFFFFFFFFFFFFFFFFFFFFFFFFFFFFFFFFFFFF AND MUL OR SWAP1 SSTORE POP POP PUSH2 0x100 JUMP JUMPDEST PUSH0 DUP1 REVERT JUMPDEST PUSH0 PUSH20 0xFFFFFFFFFFFFFFFFFFFFFFFFFFFFFFFFFFFFFFFF DUP3 AND SWAP1 POP SWAP2 SWAP1 POP JUMP JUMPDEST PUSH0 PUSH2 0xA4 DUP3 PUSH2 0x7B JUMP JUMPDEST SWAP1 POP SWAP2 SWAP1 POP JUMP JUMPDEST PUSH2 0xB4 DUP2 PUSH2 0x9A JUMP JUMPDEST DUP2 EQ PUSH2 0xBE JUMPI PUSH0 DUP1 REVERT JUMPDEST POP JUMP JUMPDEST PUSH0 DUP2 MLOAD SWAP1 POP PUSH2 0xCF DUP2 PUSH2 0xAB JUMP JUMPDEST SWAP3 SWAP2 POP POP JUMP JUMPDEST PUSH0 PUSH1 0x20 DUP3 DUP5 SUB SLT ISZERO PUSH2 0xEA JUMPI PUSH2 0xE9 PUSH2 0x77 JUMP JUMPDEST JUMPDEST PUSH0 PUSH2 0xF7 DUP5 DUP3 DUP6 ADD PUSH2 0xC1 JUMP JUMPDEST SWAP2 POP POP SWAP3 SWAP2 POP POP JUMP JUMPDEST PUSH2 0xC6F DUP1 PUSH2 0x10D PUSH0 CODECOPY PUSH0 RETURN INVALID PUSH1 0x80 PUSH1 0x40 MSTORE CALLVALUE DUP1 ISZERO PUSH2 0xF JUMPI PUSH0 DUP1 REVERT JUMPDEST POP PUSH1 0x4 CALLDATASIZE LT PUSH2 0x55 JUMPI PUSH0 CALLDATALOAD PUSH1 0xE0 SHR DUP1 PUSH4 0x372500AB EQ PUSH2 0x59 JUMPI DUP1 PUSH4 0xAFF0B297 EQ PUSH2 0x63 JUMPI DUP1 PUSH4 0xC3DFDAE6 EQ PUSH2 0x7F JUMPI DUP1 PUSH4 0xC40680F6 EQ PUSH2 0x9D JUMPI DUP1 PUSH4 0xEDC15B6B EQ PUSH2 0xBB JUMPI JUMPDEST PUSH0 DUP1 REVERT JUMPDEST PUSH2 0x61 PUSH2 0xED JUMP JUMPDEST STOP JUMPDEST PUSH2 0x7D PUSH1 0x4 DUP1 CALLDATASIZE SUB DUP2 ADD SWAP1 PUSH2 0x78 SWAP2 SWAP1 PUSH2 0x709 JUMP JUMPDEST PUSH2 0x2A3 JUMP JUMPDEST STOP JUMPDEST PUSH2 0x87 PUSH2 0x549 JUMP JUMPDEST PUSH1 0x40 MLOAD PUSH2 0x94 SWAP2 SWAP1 PUSH2 0x7AE JUMP JUMPDEST PUSH1 0x40 MLOAD DUP1 SWAP2 SUB SWAP1 RETURN JUMPDEST PUSH2 0xA5 PUSH2 0x56E JUMP JUMPDEST PUSH1 0x40 MLOAD PUSH2 0xB2 SWAP2 SWAP1 PUSH2 0x8CC JUMP JUMPDEST PUSH1 0x40 MLOAD DUP1 SWAP2 SUB SWAP1 RETURN JUMPDEST PUSH2 0xD5 PUSH1 0x4 DUP1 CALLDATASIZE SUB DUP2 ADD SWAP1 PUSH2 0xD0 SWAP2 SWAP1 PUSH2 0x709 JUMP JUMPDEST PUSH2 0x626 JUMP JUMPDEST PUSH1 0x40 MLOAD PUSH2 0xE4 SWAP4 SWAP3 SWAP2 SWAP1 PUSH2 0x904 JUMP JUMPDEST PUSH1 0x40 MLOAD DUP1 SWAP2 SUB SWAP1 RETURN JUMPDEST PUSH0 JUMPDEST PUSH1 0x3 DUP2 LT ISZERO PUSH2 0x2A0 JUMPI CALLER PUSH20 0xFFFFFFFFFFFFFFFFFFFFFFFFFFFFFFFFFFFFFFFF AND PUSH0 DUP3 PUSH1 0x3 DUP2 LT PUSH2 0x122 JUMPI PUSH2 0x121 PUSH2 0x939 JUMP JUMPDEST JUMPDEST PUSH1 0x3 MUL ADD PUSH0 ADD PUSH0 SWAP1 SLOAD SWAP1 PUSH2 0x100 EXP SWAP1 DIV PUSH20 0xFFFFFFFFFFFFFFFFFFFFFFFFFFFFFFFFFFFFFFFF AND PUSH20 0xFFFFFFFFFFFFFFFFFFFFFFFFFFFFFFFFFFFFFFFF AND SUB PUSH2 0x28D JUMPI PUSH0 DUP1 DUP3 PUSH1 0x3 DUP2 LT PUSH2 0x177 JUMPI PUSH2 0x176 PUSH2 0x939 JUMP JUMPDEST JUMPDEST PUSH1 0x3 MUL ADD PUSH1 0x2 ADD SLOAD TIMESTAMP PUSH2 0x18A SWAP2 SWAP1 PUSH2 0x993 JUMP JUMPDEST SWAP1 POP PUSH0 PUSH1 0x3C DUP3 PUSH0 DUP6 EQ PUSH2 0x1AE JUMPI PUSH1 0x1 DUP6 EQ PUSH2 0x1A6 JUMPI PUSH1 0x1 PUSH2 0x1A9 JUMP JUMPDEST PUSH1 0x2 JUMPDEST PUSH2 0x1B1 JUMP JUMPDEST PUSH1 0x3 JUMPDEST PUSH1 0xFF AND PUSH2 0x1BE SWAP2 SWAP1 PUSH2 0x9C6 JUMP JUMPDEST PUSH2 0x1C8 SWAP2 SWAP1 PUSH2 0xA34 JUMP JUMPDEST SWAP1 POP TIMESTAMP PUSH0 DUP5 PUSH1 0x3 DUP2 LT PUSH2 0x1DE JUMPI PUSH2 0x1DD PUSH2 0x939 JUMP JUMPDEST JUMPDEST PUSH1 0x3 MUL ADD PUSH1 0x2 ADD DUP2 SWAP1 SSTORE POP PUSH1 0x9 PUSH0 SWAP1 SLOAD SWAP1 PUSH2 0x100 EXP SWAP1 DIV PUSH20 0xFFFFFFFFFFFFFFFFFFFFFFFFFFFFFFFFFFFFFFFF AND PUSH20 0xFFFFFFFFFFFFFFFFFFFFFFFFFFFFFFFFFFFFFFFF AND PUSH4 0xA9059CBB CALLER DUP4 PUSH1 0x40 MLOAD DUP4 PUSH4 0xFFFFFFFF AND PUSH1 0xE0 SHL DUP2 MSTORE PUSH1 0x4 ADD PUSH2 0x245 SWAP3 SWAP2 SWAP1 PUSH2 0xA64 JUMP JUMPDEST PUSH1 0x20 PUSH1 0x40 MLOAD DUP1 DUP4 SUB DUP2 PUSH0 DUP8 GAS CALL ISZERO DUP1 ISZERO PUSH2 0x261 JUMPI RETURNDATASIZE PUSH0 DUP1 RETURNDATACOPY RETURNDATASIZE PUSH0 REVERT JUMPDEST POP POP POP POP PUSH1 0x40 MLOAD RETURNDATASIZE PUSH1 0x1F NOT PUSH1 0x1F DUP3 ADD AND DUP3 ADD DUP1 PUSH1 0x40 MSTORE POP DUP2 ADD SWAP1 PUSH2 0x285 SWAP2 SWAP1 PUSH2 0xAC0 JUMP JUMPDEST POP POP POP PUSH2 0x2A0 JUMP JUMPDEST DUP1 DUP1 PUSH2 0x298 SWAP1 PUSH2 0xAEB JUMP JUMPDEST SWAP2 POP POP PUSH2 0xEF JUMP JUMPDEST POP JUMP JUMPDEST PUSH0 PUSH1 0x2 PUSH1 0x3 DUP2 LT PUSH2 0x2B7 JUMPI PUSH2 0x2B6 PUSH2 0x939 JUMP JUMPDEST JUMPDEST PUSH1 0x3 MUL ADD PUSH1 0x1 ADD SLOAD DUP2 GT PUSH2 0x300 JUMPI PUSH1 0x40 MLOAD PUSH32 0x8C379A000000000000000000000000000000000000000000000000000000000 DUP2 MSTORE PUSH1 0x4 ADD PUSH2 0x2F7 SWAP1 PUSH2 0xB8C JUMP JUMPDEST PUSH1 0x40 MLOAD DUP1 SWAP2 SUB SWAP1 REVERT JUMPDEST PUSH0 JUMPDEST PUSH1 0x3 DUP2 LT ISZERO PUSH2 0x37A JUMPI PUSH0 DUP2 PUSH1 0x3 DUP2 LT PUSH2 0x31E JUMPI PUSH2 0x31D PUSH2 0x939 JUMP JUMPDEST JUMPDEST PUSH1 0x3 MUL ADD PUSH1 0x1 ADD SLOAD DUP3 SUB PUSH2 0x367 JUMPI PUSH1 0x40 MLOAD PUSH32 0x8C379A000000000000000000000000000000000000000000000000000000000 DUP2 MSTORE PUSH1 0x4 ADD PUSH2 0x35E SWAP1 PUSH2 0xBF4 JUMP JUMPDEST PUSH1 0x40 MLOAD DUP1 SWAP2 SUB SWAP1 REVERT JUMPDEST DUP1 DUP1 PUSH2 0x372 SWAP1 PUSH2 0xAEB JUMP JUMPDEST SWAP2 POP POP PUSH2 0x302 JUMP JUMPDEST POP PUSH0 JUMPDEST PUSH1 0x3 DUP2 LT ISZERO PUSH2 0x545 JUMPI PUSH0 DUP2 PUSH1 0x3 DUP2 LT PUSH2 0x399 JUMPI PUSH2 0x398 PUSH2 0x939 JUMP JUMPDEST JUMPDEST PUSH1 0x3 MUL ADD PUSH1 0x1 ADD SLOAD DUP3 GT ISZERO PUSH2 0x532 JUMPI PUSH0 PUSH1 0x1 PUSH1 0x3 PUSH2 0x3B7 SWAP2 SWAP1 PUSH2 0x993 JUMP JUMPDEST SWAP1 POP JUMPDEST DUP2 DUP2 GT ISZERO PUSH2 0x489 JUMPI PUSH0 PUSH1 0x1 DUP3 PUSH2 0x3D0 SWAP2 SWAP1 PUSH2 0x993 JUMP JUMPDEST PUSH1 0x3 DUP2 LT PUSH2 0x3E1 JUMPI PUSH2 0x3E0 PUSH2 0x939 JUMP JUMPDEST JUMPDEST PUSH1 0x3 MUL ADD PUSH0 DUP3 PUSH1 0x3 DUP2 LT PUSH2 0x3F8 JUMPI PUSH2 0x3F7 PUSH2 0x939 JUMP JUMPDEST JUMPDEST PUSH1 0x3 MUL ADD PUSH0 DUP3 ADD PUSH0 SWAP1 SLOAD SWAP1 PUSH2 0x100 EXP SWAP1 DIV PUSH20 0xFFFFFFFFFFFFFFFFFFFFFFFFFFFFFFFFFFFFFFFF AND DUP2 PUSH0 ADD PUSH0 PUSH2 0x100 EXP DUP2 SLOAD DUP2 PUSH20 0xFFFFFFFFFFFFFFFFFFFFFFFFFFFFFFFFFFFFFFFF MUL NOT AND SWAP1 DUP4 PUSH20 0xFFFFFFFFFFFFFFFFFFFFFFFFFFFFFFFFFFFFFFFF AND MUL OR SWAP1 SSTORE POP PUSH1 0x1 DUP3 ADD SLOAD DUP2 PUSH1 0x1 ADD SSTORE PUSH1 0x2 DUP3 ADD SLOAD DUP2 PUSH1 0x2 ADD SSTORE SWAP1 POP POP DUP1 DUP1 PUSH2 0x481 SWAP1 PUSH2 0xC12 JUMP JUMPDEST SWAP2 POP POP PUSH2 0x3BA JUMP JUMPDEST POP PUSH1 0x40 MLOAD DUP1 PUSH1 0x60 ADD PUSH1 0x40 MSTORE DUP1 CALLER PUSH20 0xFFFFFFFFFFFFFFFFFFFFFFFFFFFFFFFFFFFFFFFF AND DUP2 MSTORE PUSH1 0x20 ADD DUP4 DUP2 MSTORE PUSH1 0x20 ADD TIMESTAMP DUP2 MSTORE POP PUSH0 DUP3 PUSH1 0x3 DUP2 LT PUSH2 0x4CE JUMPI PUSH2 0x4CD PUSH2 0x939 JUMP JUMPDEST JUMPDEST PUSH1 0x3 MUL ADD PUSH0 DUP3 ADD MLOAD DUP2 PUSH0 ADD PUSH0 PUSH2 0x100 EXP DUP2 SLOAD DUP2 PUSH20 0xFFFFFFFFFFFFFFFFFFFFFFFFFFFFFFFFFFFFFFFF MUL NOT AND SWAP1 DUP4 PUSH20 0xFFFFFFFFFFFFFFFFFFFFFFFFFFFFFFFFFFFFFFFF AND MUL OR SWAP1 SSTORE POP PUSH1 0x20 DUP3 ADD MLOAD DUP2 PUSH1 0x1 ADD SSTORE PUSH1 0x40 DUP3 ADD MLOAD DUP2 PUSH1 0x2 ADD SSTORE SWAP1 POP POP PUSH2 0x545 JUMP JUMPDEST DUP1 DUP1 PUSH2 0x53D SWAP1 PUSH2 0xAEB JUMP JUMPDEST SWAP2 POP POP PUSH2 0x37D JUMP JUMPDEST POP POP JUMP JUMPDEST PUSH1 0x9 PUSH0 SWAP1 SLOAD SWAP1 PUSH2 0x100 EXP SWAP1 DIV PUSH20 0xFFFFFFFFFFFFFFFFFFFFFFFFFFFFFFFFFFFFFFFF AND DUP2 JUMP JUMPDEST PUSH2 0x576 PUSH2 0x671 JUMP JUMPDEST PUSH0 PUSH1 0x3 DUP1 PUSH1 0x20 MUL PUSH1 0x40 MLOAD SWAP1 DUP2 ADD PUSH1 0x40 MSTORE DUP1 SWAP3 SWAP2 SWAP1 PUSH0 SWAP1 JUMPDEST DUP3 DUP3 LT ISZERO PUSH2 0x61D JUMPI DUP4 DUP3 PUSH1 0x3 MUL ADD PUSH1 0x40 MLOAD DUP1 PUSH1 0x60 ADD PUSH1 0x40 MSTORE SWAP1 DUP2 PUSH0 DUP3 ADD PUSH0 SWAP1 SLOAD SWAP1 PUSH2 0x100 EXP SWAP1 DIV PUSH20 0xFFFFFFFFFFFFFFFFFFFFFFFFFFFFFFFFFFFFFFFF AND PUSH20 0xFFFFFFFFFFFFFFFFFFFFFFFFFFFFFFFFFFFFFFFF AND PUSH20 0xFFFFFFFFFFFFFFFFFFFFFFFFFFFFFFFFFFFFFFFF AND DUP2 MSTORE PUSH1 0x20 ADD PUSH1 0x1 DUP3 ADD SLOAD DUP2 MSTORE PUSH1 0x20 ADD PUSH1 0x2 DUP3 ADD SLOAD DUP2 MSTORE POP POP DUP2 MSTORE PUSH1 0x20 ADD SWAP1 PUSH1 0x1 ADD SWAP1 PUSH2 0x58D JUMP JUMPDEST POP POP POP POP SWAP1 POP SWAP1 JUMP JUMPDEST PUSH0 DUP2 PUSH1 0x3 DUP2 LT PUSH2 0x634 JUMPI PUSH0 DUP1 REVERT JUMPDEST PUSH1 0x3 MUL ADD PUSH0 SWAP2 POP SWAP1 POP DUP1 PUSH0 ADD PUSH0 SWAP1 SLOAD SWAP1 PUSH2 0x100 EXP SWAP1 DIV PUSH20 0xFFFFFFFFFFFFFFFFFFFFFFFFFFFFFFFFFFFFFFFF AND SWAP1 DUP1 PUSH1 0x1 ADD SLOAD SWAP1 DUP1 PUSH1 0x2 ADD SLOAD SWAP1 POP DUP4 JUMP JUMPDEST PUSH1 0x40 MLOAD DUP1 PUSH1 0x60 ADD PUSH1 0x40 MSTORE DUP1 PUSH1 0x3 SWAP1 JUMPDEST PUSH2 0x688 PUSH2 0x69E JUMP JUMPDEST DUP2 MSTORE PUSH1 0x20 ADD SWAP1 PUSH1 0x1 SWAP1 SUB SWAP1 DUP2 PUSH2 0x680 JUMPI SWAP1 POP POP SWAP1 JUMP JUMPDEST PUSH1 0x40 MLOAD DUP1 PUSH1 0x60 ADD PUSH1 0x40 MSTORE DUP1 PUSH0 PUSH20 0xFFFFFFFFFFFFFFFFFFFFFFFFFFFFFFFFFFFFFFFF AND DUP2 MSTORE PUSH1 0x20 ADD PUSH0 DUP2 MSTORE PUSH1 0x20 ADD PUSH0 DUP2 MSTORE POP SWAP1 JUMP JUMPDEST PUSH0 DUP1 REVERT JUMPDEST PUSH0 DUP2 SWAP1 POP SWAP2 SWAP1 POP JUMP JUMPDEST PUSH2 0x6E8 DUP2 PUSH2 0x6D6 JUMP JUMPDEST DUP2 EQ PUSH2 0x6F2 JUMPI PUSH0 DUP1 REVERT JUMPDEST POP JUMP JUMPDEST PUSH0 DUP2 CALLDATALOAD SWAP1 POP PUSH2 0x703 DUP2 PUSH2 0x6DF JUMP JUMPDEST SWAP3 SWAP2 POP POP JUMP JUMPDEST PUSH0 PUSH1 0x20 DUP3 DUP5 SUB SLT ISZERO PUSH2 0x71E JUMPI PUSH2 0x71D PUSH2 0x6D2 JUMP JUMPDEST JUMPDEST PUSH0 PUSH2 0x72B DUP5 DUP3 DUP6 ADD PUSH2 0x6F5 JUMP JUMPDEST SWAP2 POP POP SWAP3 SWAP2 POP POP JUMP JUMPDEST PUSH0 PUSH20 0xFFFFFFFFFFFFFFFFFFFFFFFFFFFFFFFFFFFFFFFF DUP3 AND SWAP1 POP SWAP2 SWAP1 POP JUMP JUMPDEST PUSH0 DUP2 SWAP1 POP SWAP2 SWAP1 POP JUMP JUMPDEST PUSH0 PUSH2 0x776 PUSH2 0x771 PUSH2 0x76C DUP5 PUSH2 0x734 JUMP JUMPDEST PUSH2 0x753 JUMP JUMPDEST PUSH2 0x734 JUMP JUMPDEST SWAP1 POP SWAP2 SWAP1 POP JUMP JUMPDEST PUSH0 PUSH2 0x787 DUP3 PUSH2 0x75C JUMP JUMPDEST SWAP1 POP SWAP2 SWAP1 POP JUMP JUMPDEST PUSH0 PUSH2 0x798 DUP3 PUSH2 0x77D JUMP JUMPDEST SWAP1 POP SWAP2 SWAP1 POP JUMP JUMPDEST PUSH2 0x7A8 DUP2 PUSH2 0x78E JUMP JUMPDEST DUP3 MSTORE POP POP JUMP JUMPDEST PUSH0 PUSH1 0x20 DUP3 ADD SWAP1 POP PUSH2 0x7C1 PUSH0 DUP4 ADD DUP5 PUSH2 0x79F JUMP JUMPDEST SWAP3 SWAP2 POP POP JUMP JUMPDEST PUSH0 PUSH1 0x3 SWAP1 POP SWAP2 SWAP1 POP JUMP JUMPDEST PUSH0 DUP2 SWAP1 POP SWAP3 SWAP2 POP POP JUMP JUMPDEST PUSH0 DUP2 SWAP1 POP SWAP2 SWAP1 POP JUMP JUMPDEST PUSH0 PUSH2 0x7EE DUP3 PUSH2 0x734 JUMP JUMPDEST SWAP1 POP SWAP2 SWAP1 POP JUMP JUMPDEST PUSH2 0x7FE DUP2 PUSH2 0x7E4 JUMP JUMPDEST DUP3 MSTORE POP POP JUMP JUMPDEST PUSH2 0x80D DUP2 PUSH2 0x6D6 JUMP JUMPDEST DUP3 MSTORE POP POP JUMP JUMPDEST PUSH1 0x60 DUP3 ADD PUSH0 DUP3 ADD MLOAD PUSH2 0x827 PUSH0 DUP6 ADD DUP3 PUSH2 0x7F5 JUMP JUMPDEST POP PUSH1 0x20 DUP3 ADD MLOAD PUSH2 0x83A PUSH1 0x20 DUP6 ADD DUP3 PUSH2 0x804 JUMP JUMPDEST POP PUSH1 0x40 DUP3 ADD MLOAD PUSH2 0x84D PUSH1 0x40 DUP6 ADD DUP3 PUSH2 0x804 JUMP JUMPDEST POP POP POP POP JUMP JUMPDEST PUSH0 PUSH2 0x85E DUP4 DUP4 PUSH2 0x813 JUMP JUMPDEST PUSH1 0x60 DUP4 ADD SWAP1 POP SWAP3 SWAP2 POP POP JUMP JUMPDEST PUSH0 PUSH1 0x20 DUP3 ADD SWAP1 POP SWAP2 SWAP1 POP JUMP JUMPDEST PUSH2 0x87F DUP2 PUSH2 0x7C7 JUMP JUMPDEST PUSH2 0x889 DUP2 DUP5 PUSH2 0x7D1 JUMP JUMPDEST SWAP3 POP PUSH2 0x894 DUP3 PUSH2 0x7DB JUMP JUMPDEST DUP1 PUSH0 JUMPDEST DUP4 DUP2 LT ISZERO PUSH2 0x8C4 JUMPI DUP2 MLOAD PUSH2 0x8AB DUP8 DUP3 PUSH2 0x853 JUMP JUMPDEST SWAP7 POP PUSH2 0x8B6 DUP4 PUSH2 0x86A JUMP JUMPDEST SWAP3 POP POP PUSH1 0x1 DUP2 ADD SWAP1 POP PUSH2 0x897 JUMP JUMPDEST POP POP POP POP POP POP JUMP JUMPDEST PUSH0 PUSH2 0x120 DUP3 ADD SWAP1 POP PUSH2 0x8E0 PUSH0 DUP4 ADD DUP5 PUSH2 0x876 JUMP JUMPDEST SWAP3 SWAP2 POP POP JUMP JUMPDEST PUSH2 0x8EF DUP2 PUSH2 0x7E4 JUMP JUMPDEST DUP3 MSTORE POP POP JUMP JUMPDEST PUSH2 0x8FE DUP2 PUSH2 0x6D6 JUMP JUMPDEST DUP3 MSTORE POP POP JUMP JUMPDEST PUSH0 PUSH1 0x60 DUP3 ADD SWAP1 POP PUSH2 0x917 PUSH0 DUP4 ADD DUP7 PUSH2 0x8E6 JUMP JUMPDEST PUSH2 0x924 PUSH1 0x20 DUP4 ADD DUP6 PUSH2 0x8F5 JUMP JUMPDEST PUSH2 0x931 PUSH1 0x40 DUP4 ADD DUP5 PUSH2 0x8F5 JUMP JUMPDEST SWAP5 SWAP4 POP POP POP POP JUMP JUMPDEST PUSH32 0x4E487B7100000000000000000000000000000000000000000000000000000000 PUSH0 MSTORE PUSH1 0x32 PUSH1 0x4 MSTORE PUSH1 0x24 PUSH0 REVERT JUMPDEST PUSH32 0x4E487B7100000000000000000000000000000000000000000000000000000000 PUSH0 MSTORE PUSH1 0x11 PUSH1 0x4 MSTORE PUSH1 0x24 PUSH0 REVERT JUMPDEST PUSH0 PUSH2 0x99D DUP3 PUSH2 0x6D6 JUMP JUMPDEST SWAP2 POP PUSH2 0x9A8 DUP4 PUSH2 0x6D6 JUMP JUMPDEST SWAP3 POP DUP3 DUP3 SUB SWAP1 POP DUP2 DUP2 GT ISZERO PUSH2 0x9C0 JUMPI PUSH2 0x9BF PUSH2 0x966 JUMP JUMPDEST JUMPDEST SWAP3 SWAP2 POP POP JUMP JUMPDEST PUSH0 PUSH2 0x9D0 DUP3 PUSH2 0x6D6 JUMP JUMPDEST SWAP2 POP PUSH2 0x9DB DUP4 PUSH2 0x6D6 JUMP JUMPDEST SWAP3 POP DUP3 DUP3 MUL PUSH2 0x9E9 DUP2 PUSH2 0x6D6 JUMP JUMPDEST SWAP2 POP DUP3 DUP3 DIV DUP5 EQ DUP4 ISZERO OR PUSH2 0xA00 JUMPI PUSH2 0x9FF PUSH2 0x966 JUMP JUMPDEST JUMPDEST POP SWAP3 SWAP2 POP POP JUMP JUMPDEST PUSH32 0x4E487B7100000000000000000000000000000000000000000000000000000000 PUSH0 MSTORE PUSH1 0x12 PUSH1 0x4 MSTORE PUSH1 0x24 PUSH0 REVERT JUMPDEST PUSH0 PUSH2 0xA3E DUP3 PUSH2 0x6D6 JUMP JUMPDEST SWAP2 POP PUSH2 0xA49 DUP4 PUSH2 0x6D6 JUMP JUMPDEST SWAP3 POP DUP3 PUSH2 0xA59 JUMPI PUSH2 0xA58 PUSH2 0xA07 JUMP JUMPDEST JUMPDEST DUP3 DUP3 DIV SWAP1 POP SWAP3 SWAP2 POP POP JUMP JUMPDEST PUSH0 PUSH1 0x40 DUP3 ADD SWAP1 POP PUSH2 0xA77 PUSH0 DUP4 ADD DUP6 PUSH2 0x8E6 JUMP JUMPDEST PUSH2 0xA84 PUSH1 0x20 DUP4 ADD DUP5 PUSH2 0x8F5 JUMP JUMPDEST SWAP4 SWAP3 POP POP POP JUMP JUMPDEST PUSH0 DUP2 ISZERO ISZERO SWAP1 POP SWAP2 SWAP1 POP JUMP JUMPDEST PUSH2 0xA9F DUP2 PUSH2 0xA8B JUMP JUMPDEST DUP2 EQ PUSH2 0xAA9 JUMPI PUSH0 DUP1 REVERT JUMPDEST POP JUMP JUMPDEST PUSH0 DUP2 MLOAD SWAP1 POP PUSH2 0xABA DUP2 PUSH2 0xA96 JUMP JUMPDEST SWAP3 SWAP2 POP POP JUMP JUMPDEST PUSH0 PUSH1 0x20 DUP3 DUP5 SUB SLT ISZERO PUSH2 0xAD5 JUMPI PUSH2 0xAD4 PUSH2 0x6D2 JUMP JUMPDEST JUMPDEST PUSH0 PUSH2 0xAE2 DUP5 DUP3 DUP6 ADD PUSH2 0xAAC JUMP JUMPDEST SWAP2 POP POP SWAP3 SWAP2 POP POP JUMP JUMPDEST PUSH0 PUSH2 0xAF5 DUP3 PUSH2 0x6D6 JUMP JUMPDEST SWAP2 POP PUSH32 0xFFFFFFFFFFFFFFFFFFFFFFFFFFFFFFFFFFFFFFFFFFFFFFFFFFFFFFFFFFFFFFFF DUP3 SUB PUSH2 0xB27 JUMPI PUSH2 0xB26 PUSH2 0x966 JUMP JUMPDEST JUMPDEST PUSH1 0x1 DUP3 ADD SWAP1 POP SWAP2 SWAP1 POP JUMP JUMPDEST PUSH0 DUP3 DUP3 MSTORE PUSH1 0x20 DUP3 ADD SWAP1 POP SWAP3 SWAP2 POP POP JUMP JUMPDEST PUSH32 0x6E6565642061206869676865722073636F726500000000000000000000000000 PUSH0 DUP3 ADD MSTORE POP JUMP JUMPDEST PUSH0 PUSH2 0xB76 PUSH1 0x13 DUP4 PUSH2 0xB32 JUMP JUMPDEST SWAP2 POP PUSH2 0xB81 DUP3 PUSH2 0xB42 JUMP JUMPDEST PUSH1 0x20 DUP3 ADD SWAP1 POP SWAP2 SWAP1 POP JUMP JUMPDEST PUSH0 PUSH1 0x20 DUP3 ADD SWAP1 POP DUP2 DUP2 SUB PUSH0 DUP4 ADD MSTORE PUSH2 0xBA3 DUP2 PUSH2 0xB6A JUMP JUMPDEST SWAP1 POP SWAP2 SWAP1 POP JUMP JUMPDEST PUSH32 0x796F752063616E6074207375626D69742063757A2073616D652073636F726500 PUSH0 DUP3 ADD MSTORE POP JUMP JUMPDEST PUSH0 PUSH2 0xBDE PUSH1 0x1F DUP4 PUSH2 0xB32 JUMP JUMPDEST SWAP2 POP PUSH2 0xBE9 DUP3 PUSH2 0xBAA JUMP JUMPDEST PUSH1 0x20 DUP3 ADD SWAP1 POP SWAP2 SWAP1 POP JUMP JUMPDEST PUSH0 PUSH1 0x20 DUP3 ADD SWAP1 POP DUP2 DUP2 SUB PUSH0 DUP4 ADD MSTORE PUSH2 0xC0B DUP2 PUSH2 0xBD2 JUMP JUMPDEST SWAP1 POP SWAP2 SWAP1 POP JUMP JUMPDEST PUSH0 PUSH2 0xC1C DUP3 PUSH2 0x6D6 JUMP JUMPDEST SWAP2 POP PUSH0 DUP3 SUB PUSH2 0xC2E JUMPI PUSH2 0xC2D PUSH2 0x966 JUMP JUMPDEST JUMPDEST PUSH1 0x1 DUP3 SUB SWAP1 POP SWAP2 SWAP1 POP JUMP INVALID LOG2 PUSH5 0x6970667358 0x22 SLT KECCAK256 0xB5 OR ADDRESS REVERT ADDMOD 0x2C 0x1F 0xC DUP3 ISZERO 0xC0 0xC2 ADDMOD LT PUSH22 0x6416D84EBF5C3E9B89CA915187FF94C48E64736F6C63 NUMBER STOP ADDMOD EQ STOP CALLER "
		},
		"gasEstimates": {
			"creation": {
				"codeDepositCost": "636600",
				"executionCost": "infinite",
				"totalCost": "infinite"
			},
			"external": {
				"claimRewards()": "infinite",
				"gameToken()": "infinite",
				"getRankingScores()": "infinite",
				"rankings(uint256)": "infinite",
				"submitScore(uint256)": "infinite"
			}
		},
		"methodIdentifiers": {
			"claimRewards()": "372500ab",
			"gameToken()": "c3dfdae6",
			"getRankingScores()": "c40680f6",
			"rankings(uint256)": "edc15b6b",
			"submitScore(uint256)": "aff0b297"
		}
	},
	"abi": [
		{
			"inputs": [
				{
					"internalType": "address",
					"name": "gameTokenAddress",
					"type": "address"
				}
			],
			"stateMutability": "nonpayable",
			"type": "constructor"
		},
		{
			"inputs": [],
			"name": "claimRewards",
			"outputs": [],
			"stateMutability": "nonpayable",
			"type": "function"
		},
		{
			"inputs": [],
			"name": "gameToken",
			"outputs": [
				{
					"internalType": "contract GameToken",
					"name": "",
					"type": "address"
				}
			],
			"stateMutability": "view",
			"type": "function"
		},
		{
			"inputs": [],
			"name": "getRankingScores",
			"outputs": [
				{
					"components": [
						{
							"internalType": "address",
							"name": "playerAddress",
							"type": "address"
						},
						{
							"internalType": "uint256",
							"name": "score",
							"type": "uint256"
						},
						{
							"internalType": "uint256",
							"name": "lastClaimed",
							"type": "uint256"
						}
					],
					"internalType": "struct RankingContract.Player[3]",
					"name": "",
					"type": "tuple[3]"
				}
			],
			"stateMutability": "view",
			"type": "function"
		},
		{
			"inputs": [
				{
					"internalType": "uint256",
					"name": "",
					"type": "uint256"
				}
			],
			"name": "rankings",
			"outputs": [
				{
					"internalType": "address",
					"name": "playerAddress",
					"type": "address"
				},
				{
					"internalType": "uint256",
					"name": "score",
					"type": "uint256"
				},
				{
					"internalType": "uint256",
					"name": "lastClaimed",
					"type": "uint256"
				}
			],
			"stateMutability": "view",
			"type": "function"
		},
		{
			"inputs": [
				{
					"internalType": "uint256",
					"name": "score",
					"type": "uint256"
				}
			],
			"name": "submitScore",
			"outputs": [],
			"stateMutability": "nonpayable",
			"type": "function"
		}
	]
}