{
	"data": {
		"bytecode": {
			"linkReferences": {},
			"object": "608060405234801562000010575f80fd5b506040516200168238038062001682833981810160405281019062000036919062000122565b815f806101000a81548173ffffffffffffffffffffffffffffffffffffffff021916908373ffffffffffffffffffffffffffffffffffffffff1602179055508060015f6101000a81548173ffffffffffffffffffffffffffffffffffffffff021916908373ffffffffffffffffffffffffffffffffffffffff160217905550505062000167565b5f80fd5b5f73ffffffffffffffffffffffffffffffffffffffff82169050919050565b5f620000ec82620000c1565b9050919050565b620000fe81620000e0565b811462000109575f80fd5b50565b5f815190506200011c81620000f3565b92915050565b5f80604083850312156200013b576200013a620000bd565b5b5f6200014a858286016200010c565b92505060206200015d858286016200010c565b9150509250929050565b61150d80620001755f395ff3fe608060405234801561000f575f80fd5b506004361061009c575f3560e01c8063b86f160d11610064578063b86f160d14610140578063c2b10dda1461015e578063c3dfdae61461018e578063cc9562a5146101ac578063f1a386ad146101b65761009c565b8063493dda80146100a057806351ed8288146100bc5780638361c8ac146100d85780638efc22ec14610108578063b0323a1814610124575b5f80fd5b6100ba60048036038101906100b59190610c76565b6101d4565b005b6100d660048036038101906100d19190610c76565b6105c3565b005b6100f260048036038101906100ed9190610cfb565b61094a565b6040516100ff9190610d35565b60405180910390f35b610122600480360381019061011d9190610d4e565b61095f565b005b61013e60048036038101906101399190610ec8565b6109ea565b005b610148610a78565b6040516101559190610f4e565b60405180910390f35b61017860048036038101906101739190610cfb565b610b18565b6040516101859190610d35565b60405180910390f35b610196610b5e565b6040516101a39190610fc2565b60405180910390f35b6101b4610b83565b005b6101be610c0f565b6040516101cb9190610ffb565b60405180910390f35b5f805f9054906101000a900473ffffffffffffffffffffffffffffffffffffffff1673ffffffffffffffffffffffffffffffffffffffff1663e7572230836040518263ffffffff1660e01b815260040161022e9190610d35565b602060405180830381865afa158015610249573d5f803e3d5ffd5b505050506040513d601f19601f8201168201806040525081019061026d9190611028565b90505f805f9054906101000a900473ffffffffffffffffffffffffffffffffffffffff1673ffffffffffffffffffffffffffffffffffffffff16636352211e846040518263ffffffff1660e01b81526004016102c99190610d35565b602060405180830381865afa1580156102e4573d5f803e3d5ffd5b505050506040513d601f19601f820116820180604052508101906103089190611067565b905060015f9054906101000a900473ffffffffffffffffffffffffffffffffffffffff1673ffffffffffffffffffffffffffffffffffffffff1663a9059cbb82846040518363ffffffff1660e01b81526004016103669291906110a1565b6020604051808303815f875af1158015610382573d5f803e3d5ffd5b505050506040513d601f19601f820116820180604052508101906103a691906110f2565b6103e5576040517f08c379a00000000000000000000000000000000000000000000000000000000081526004016103dc90611177565b60405180910390fd5b5f8054906101000a900473ffffffffffffffffffffffffffffffffffffffff1673ffffffffffffffffffffffffffffffffffffffff166323b872dd5f8054906101000a900473ffffffffffffffffffffffffffffffffffffffff1673ffffffffffffffffffffffffffffffffffffffff16636352211e866040518263ffffffff1660e01b81526004016104789190610d35565b602060405180830381865afa158015610493573d5f803e3d5ffd5b505050506040513d601f19601f820116820180604052508101906104b79190611067565b33866040518463ffffffff1660e01b81526004016104d793929190611195565b5f604051808303815f87803b1580156104ee575f80fd5b505af1158015610500573d5f803e3d5ffd5b505050508160025f3373ffffffffffffffffffffffffffffffffffffffff1673ffffffffffffffffffffffffffffffffffffffff1681526020019081526020015f205f82825461055091906111f7565b925050819055508073ffffffffffffffffffffffffffffffffffffffff163373ffffffffffffffffffffffffffffffffffffffff167f818cbccd29a4cc9cba1d68ef17773485dc04a1b257b9f57ddcdafb4778a4ca3f85856040516105b692919061122a565b60405180910390a3505050565b5f805f9054906101000a900473ffffffffffffffffffffffffffffffffffffffff1673ffffffffffffffffffffffffffffffffffffffff1663e7572230836040518263ffffffff1660e01b815260040161061d9190610d35565b602060405180830381865afa158015610638573d5f803e3d5ffd5b505050506040513d601f19601f8201168201806040525081019061065c9190611028565b90508060015f9054906101000a900473ffffffffffffffffffffffffffffffffffffffff1673ffffffffffffffffffffffffffffffffffffffff166370a08231336040518263ffffffff1660e01b81526004016106b99190611251565b602060405180830381865afa1580156106d4573d5f803e3d5ffd5b505050506040513d601f19601f820116820180604052508101906106f89190611028565b1015610739576040517f08c379a0000000000000000000000000000000000000000000000000000000008152600401610730906112b4565b60405180910390fd5b8060015f9054906101000a900473ffffffffffffffffffffffffffffffffffffffff1673ffffffffffffffffffffffffffffffffffffffff1663dd62ed3e33306040518363ffffffff1660e01b81526004016107969291906112d2565b602060405180830381865afa1580156107b1573d5f803e3d5ffd5b505050506040513d601f19601f820116820180604052508101906107d59190611028565b1015610816576040517f08c379a000000000000000000000000000000000000000000000000000000000815260040161080d90611343565b60405180910390fd5b60015f9054906101000a900473ffffffffffffffffffffffffffffffffffffffff1673ffffffffffffffffffffffffffffffffffffffff166323b872dd3330846040518463ffffffff1660e01b815260040161087493929190611195565b6020604051808303815f875af1158015610890573d5f803e3d5ffd5b505050506040513d601f19601f820116820180604052508101906108b491906110f2565b6108f3576040517f08c379a00000000000000000000000000000000000000000000000000000000081526004016108ea906113ab565b60405180910390fd5b8060025f3373ffffffffffffffffffffffffffffffffffffffff1673ffffffffffffffffffffffffffffffffffffffff1681526020019081526020015f205f82825461093f91906113c9565b925050819055505050565b6002602052805f5260405f205f915090505481565b5f8054906101000a900473ffffffffffffffffffffffffffffffffffffffff1673ffffffffffffffffffffffffffffffffffffffff16638583622383836040518363ffffffff1660e01b81526004016109b99291906110a1565b5f604051808303815f87803b1580156109d0575f80fd5b505af11580156109e2573d5f803e3d5ffd5b505050505050565b5f8054906101000a900473ffffffffffffffffffffffffffffffffffffffff1673ffffffffffffffffffffffffffffffffffffffff16632040e6858484846040518463ffffffff1660e01b8152600401610a4693929190611466565b5f604051808303815f87803b158015610a5d575f80fd5b505af1158015610a6f573d5f803e3d5ffd5b50505050505050565b5f805f9054906101000a900473ffffffffffffffffffffffffffffffffffffffff1673ffffffffffffffffffffffffffffffffffffffff1663e985e9c533306040518363ffffffff1660e01b8152600401610ad49291906112d2565b602060405180830381865afa158015610aef573d5f803e3d5ffd5b505050506040513d601f19601f82011682018060405250810190610b1391906110f2565b905090565b5f60025f8373ffffffffffffffffffffffffffffffffffffffff1673ffffffffffffffffffffffffffffffffffffffff1681526020019081526020015f20549050919050565b60015f9054906101000a900473ffffffffffffffffffffffffffffffffffffffff1681565b5f8054906101000a900473ffffffffffffffffffffffffffffffffffffffff1673ffffffffffffffffffffffffffffffffffffffff166329d6724e333060016040518463ffffffff1660e01b8152600401610be0939291906114a2565b5f604051808303815f87803b158015610bf7575f80fd5b505af1158015610c09573d5f803e3d5ffd5b50505050565b5f8054906101000a900473ffffffffffffffffffffffffffffffffffffffff1681565b5f604051905090565b5f80fd5b5f80fd5b5f819050919050565b610c5581610c43565b8114610c5f575f80fd5b50565b5f81359050610c7081610c4c565b92915050565b5f60208284031215610c8b57610c8a610c3b565b5b5f610c9884828501610c62565b91505092915050565b5f73ffffffffffffffffffffffffffffffffffffffff82169050919050565b5f610cca82610ca1565b9050919050565b610cda81610cc0565b8114610ce4575f80fd5b50565b5f81359050610cf581610cd1565b92915050565b5f60208284031215610d1057610d0f610c3b565b5b5f610d1d84828501610ce7565b91505092915050565b610d2f81610c43565b82525050565b5f602082019050610d485f830184610d26565b92915050565b5f8060408385031215610d6457610d63610c3b565b5b5f610d7185828601610ce7565b9250506020610d8285828601610c62565b9150509250929050565b5f80fd5b5f80fd5b5f601f19601f8301169050919050565b7f4e487b71000000000000000000000000000000000000000000000000000000005f52604160045260245ffd5b610dda82610d94565b810181811067ffffffffffffffff82111715610df957610df8610da4565b5b80604052505050565b5f610e0b610c32565b9050610e178282610dd1565b919050565b5f67ffffffffffffffff821115610e3657610e35610da4565b5b610e3f82610d94565b9050602081019050919050565b828183375f83830152505050565b5f610e6c610e6784610e1c565b610e02565b905082815260208101848484011115610e8857610e87610d90565b5b610e93848285610e4c565b509392505050565b5f82601f830112610eaf57610eae610d8c565b5b8135610ebf848260208601610e5a565b91505092915050565b5f805f60608486031215610edf57610ede610c3b565b5b5f610eec86828701610ce7565b935050602084013567ffffffffffffffff811115610f0d57610f0c610c3f565b5b610f1986828701610e9b565b9250506040610f2a86828701610c62565b9150509250925092565b5f8115159050919050565b610f4881610f34565b82525050565b5f602082019050610f615f830184610f3f565b92915050565b5f819050919050565b5f610f8a610f85610f8084610ca1565b610f67565b610ca1565b9050919050565b5f610f9b82610f70565b9050919050565b5f610fac82610f91565b9050919050565b610fbc81610fa2565b82525050565b5f602082019050610fd55f830184610fb3565b92915050565b5f610fe582610f91565b9050919050565b610ff581610fdb565b82525050565b5f60208201905061100e5f830184610fec565b92915050565b5f8151905061102281610c4c565b92915050565b5f6020828403121561103d5761103c610c3b565b5b5f61104a84828501611014565b91505092915050565b5f8151905061106181610cd1565b92915050565b5f6020828403121561107c5761107b610c3b565b5b5f61108984828501611053565b91505092915050565b61109b81610cc0565b82525050565b5f6040820190506110b45f830185611092565b6110c16020830184610d26565b9392505050565b6110d181610f34565b81146110db575f80fd5b50565b5f815190506110ec816110c8565b92915050565b5f6020828403121561110757611106610c3b565b5b5f611114848285016110de565b91505092915050565b5f82825260208201905092915050565b7f546f6b656e207472616e7366657220746f2073656c6c6572206661696c6564005f82015250565b5f611161601f8361111d565b915061116c8261112d565b602082019050919050565b5f6020820190508181035f83015261118e81611155565b9050919050565b5f6060820190506111a85f830186611092565b6111b56020830185611092565b6111c26040830184610d26565b949350505050565b7f4e487b71000000000000000000000000000000000000000000000000000000005f52601160045260245ffd5b5f61120182610c43565b915061120c83610c43565b9250828203905081811115611224576112236111ca565b5b92915050565b5f60408201905061123d5f830185610d26565b61124a6020830184610d26565b9392505050565b5f6020820190506112645f830184611092565b92915050565b7f4e6f7420656e6f75676820546f6b656e730000000000000000000000000000005f82015250565b5f61129e60118361111d565b91506112a98261126a565b602082019050919050565b5f6020820190508181035f8301526112cb81611292565b9050919050565b5f6040820190506112e55f830185611092565b6112f26020830184611092565b9392505050565b7f4e6f7420656e6f75676820616c6c6f77616e63650000000000000000000000005f82015250565b5f61132d60148361111d565b9150611338826112f9565b602082019050919050565b5f6020820190508181035f83015261135a81611321565b9050919050565b7f546f6b656e207472616e73666572206661696c656400000000000000000000005f82015250565b5f61139560158361111d565b91506113a082611361565b602082019050919050565b5f6020820190508181035f8301526113c281611389565b9050919050565b5f6113d382610c43565b91506113de83610c43565b92508282019050808211156113f6576113f56111ca565b5b92915050565b5f81519050919050565b5f5b83811015611423578082015181840152602081019050611408565b5f8484015250505050565b5f611438826113fc565b611442818561111d565b9350611452818560208601611406565b61145b81610d94565b840191505092915050565b5f6060820190506114795f830186611092565b818103602083015261148b818561142e565b905061149a6040830184610d26565b949350505050565b5f6060820190506114b55f830186611092565b6114c26020830185611092565b6114cf6040830184610f3f565b94935050505056fea2646970667358221220070acf1b8cf94ab5372cfa715d61dfd3223f8c8ce76bfd8553ced994372eb96864736f6c63430008140033",
			"opcodes": "PUSH1 0x80 PUSH1 0x40 MSTORE CALLVALUE DUP1 ISZERO PUSH3 0x10 JUMPI PUSH0 DUP1 REVERT JUMPDEST POP PUSH1 0x40 MLOAD PUSH3 0x1682 CODESIZE SUB DUP1 PUSH3 0x1682 DUP4 CODECOPY DUP2 DUP2 ADD PUSH1 0x40 MSTORE DUP2 ADD SWAP1 PUSH3 0x36 SWAP2 SWAP1 PUSH3 0x122 JUMP JUMPDEST DUP2 PUSH0 DUP1 PUSH2 0x100 EXP DUP2 SLOAD DUP2 PUSH20 0xFFFFFFFFFFFFFFFFFFFFFFFFFFFFFFFFFFFFFFFF MUL NOT AND SWAP1 DUP4 PUSH20 0xFFFFFFFFFFFFFFFFFFFFFFFFFFFFFFFFFFFFFFFF AND MUL OR SWAP1 SSTORE POP DUP1 PUSH1 0x1 PUSH0 PUSH2 0x100 EXP DUP2 SLOAD DUP2 PUSH20 0xFFFFFFFFFFFFFFFFFFFFFFFFFFFFFFFFFFFFFFFF MUL NOT AND SWAP1 DUP4 PUSH20 0xFFFFFFFFFFFFFFFFFFFFFFFFFFFFFFFFFFFFFFFF AND MUL OR SWAP1 SSTORE POP POP POP PUSH3 0x167 JUMP JUMPDEST PUSH0 DUP1 REVERT JUMPDEST PUSH0 PUSH20 0xFFFFFFFFFFFFFFFFFFFFFFFFFFFFFFFFFFFFFFFF DUP3 AND SWAP1 POP SWAP2 SWAP1 POP JUMP JUMPDEST PUSH0 PUSH3 0xEC DUP3 PUSH3 0xC1 JUMP JUMPDEST SWAP1 POP SWAP2 SWAP1 POP JUMP JUMPDEST PUSH3 0xFE DUP2 PUSH3 0xE0 JUMP JUMPDEST DUP2 EQ PUSH3 0x109 JUMPI PUSH0 DUP1 REVERT JUMPDEST POP JUMP JUMPDEST PUSH0 DUP2 MLOAD SWAP1 POP PUSH3 0x11C DUP2 PUSH3 0xF3 JUMP JUMPDEST SWAP3 SWAP2 POP POP JUMP JUMPDEST PUSH0 DUP1 PUSH1 0x40 DUP4 DUP6 SUB SLT ISZERO PUSH3 0x13B JUMPI PUSH3 0x13A PUSH3 0xBD JUMP JUMPDEST JUMPDEST PUSH0 PUSH3 0x14A DUP6 DUP3 DUP7 ADD PUSH3 0x10C JUMP JUMPDEST SWAP3 POP POP PUSH1 0x20 PUSH3 0x15D DUP6 DUP3 DUP7 ADD PUSH3 0x10C JUMP JUMPDEST SWAP2 POP POP SWAP3 POP SWAP3 SWAP1 POP JUMP JUMPDEST PUSH2 0x150D DUP1 PUSH3 0x175 PUSH0 CODECOPY PUSH0 RETURN INVALID PUSH1 0x80 PUSH1 0x40 MSTORE CALLVALUE DUP1 ISZERO PUSH2 0xF JUMPI PUSH0 DUP1 REVERT JUMPDEST POP PUSH1 0x4 CALLDATASIZE LT PUSH2 0x9C JUMPI PUSH0 CALLDATALOAD PUSH1 0xE0 SHR DUP1 PUSH4 0xB86F160D GT PUSH2 0x64 JUMPI DUP1 PUSH4 0xB86F160D EQ PUSH2 0x140 JUMPI DUP1 PUSH4 0xC2B10DDA EQ PUSH2 0x15E JUMPI DUP1 PUSH4 0xC3DFDAE6 EQ PUSH2 0x18E JUMPI DUP1 PUSH4 0xCC9562A5 EQ PUSH2 0x1AC JUMPI DUP1 PUSH4 0xF1A386AD EQ PUSH2 0x1B6 JUMPI PUSH2 0x9C JUMP JUMPDEST DUP1 PUSH4 0x493DDA80 EQ PUSH2 0xA0 JUMPI DUP1 PUSH4 0x51ED8288 EQ PUSH2 0xBC JUMPI DUP1 PUSH4 0x8361C8AC EQ PUSH2 0xD8 JUMPI DUP1 PUSH4 0x8EFC22EC EQ PUSH2 0x108 JUMPI DUP1 PUSH4 0xB0323A18 EQ PUSH2 0x124 JUMPI JUMPDEST PUSH0 DUP1 REVERT JUMPDEST PUSH2 0xBA PUSH1 0x4 DUP1 CALLDATASIZE SUB DUP2 ADD SWAP1 PUSH2 0xB5 SWAP2 SWAP1 PUSH2 0xC76 JUMP JUMPDEST PUSH2 0x1D4 JUMP JUMPDEST STOP JUMPDEST PUSH2 0xD6 PUSH1 0x4 DUP1 CALLDATASIZE SUB DUP2 ADD SWAP1 PUSH2 0xD1 SWAP2 SWAP1 PUSH2 0xC76 JUMP JUMPDEST PUSH2 0x5C3 JUMP JUMPDEST STOP JUMPDEST PUSH2 0xF2 PUSH1 0x4 DUP1 CALLDATASIZE SUB DUP2 ADD SWAP1 PUSH2 0xED SWAP2 SWAP1 PUSH2 0xCFB JUMP JUMPDEST PUSH2 0x94A JUMP JUMPDEST PUSH1 0x40 MLOAD PUSH2 0xFF SWAP2 SWAP1 PUSH2 0xD35 JUMP JUMPDEST PUSH1 0x40 MLOAD DUP1 SWAP2 SUB SWAP1 RETURN JUMPDEST PUSH2 0x122 PUSH1 0x4 DUP1 CALLDATASIZE SUB DUP2 ADD SWAP1 PUSH2 0x11D SWAP2 SWAP1 PUSH2 0xD4E JUMP JUMPDEST PUSH2 0x95F JUMP JUMPDEST STOP JUMPDEST PUSH2 0x13E PUSH1 0x4 DUP1 CALLDATASIZE SUB DUP2 ADD SWAP1 PUSH2 0x139 SWAP2 SWAP1 PUSH2 0xEC8 JUMP JUMPDEST PUSH2 0x9EA JUMP JUMPDEST STOP JUMPDEST PUSH2 0x148 PUSH2 0xA78 JUMP JUMPDEST PUSH1 0x40 MLOAD PUSH2 0x155 SWAP2 SWAP1 PUSH2 0xF4E JUMP JUMPDEST PUSH1 0x40 MLOAD DUP1 SWAP2 SUB SWAP1 RETURN JUMPDEST PUSH2 0x178 PUSH1 0x4 DUP1 CALLDATASIZE SUB DUP2 ADD SWAP1 PUSH2 0x173 SWAP2 SWAP1 PUSH2 0xCFB JUMP JUMPDEST PUSH2 0xB18 JUMP JUMPDEST PUSH1 0x40 MLOAD PUSH2 0x185 SWAP2 SWAP1 PUSH2 0xD35 JUMP JUMPDEST PUSH1 0x40 MLOAD DUP1 SWAP2 SUB SWAP1 RETURN JUMPDEST PUSH2 0x196 PUSH2 0xB5E JUMP JUMPDEST PUSH1 0x40 MLOAD PUSH2 0x1A3 SWAP2 SWAP1 PUSH2 0xFC2 JUMP JUMPDEST PUSH1 0x40 MLOAD DUP1 SWAP2 SUB SWAP1 RETURN JUMPDEST PUSH2 0x1B4 PUSH2 0xB83 JUMP JUMPDEST STOP JUMPDEST PUSH2 0x1BE PUSH2 0xC0F JUMP JUMPDEST PUSH1 0x40 MLOAD PUSH2 0x1CB SWAP2 SWAP1 PUSH2 0xFFB JUMP JUMPDEST PUSH1 0x40 MLOAD DUP1 SWAP2 SUB SWAP1 RETURN JUMPDEST PUSH0 DUP1 PUSH0 SWAP1 SLOAD SWAP1 PUSH2 0x100 EXP SWAP1 DIV PUSH20 0xFFFFFFFFFFFFFFFFFFFFFFFFFFFFFFFFFFFFFFFF AND PUSH20 0xFFFFFFFFFFFFFFFFFFFFFFFFFFFFFFFFFFFFFFFF AND PUSH4 0xE7572230 DUP4 PUSH1 0x40 MLOAD DUP3 PUSH4 0xFFFFFFFF AND PUSH1 0xE0 SHL DUP2 MSTORE PUSH1 0x4 ADD PUSH2 0x22E SWAP2 SWAP1 PUSH2 0xD35 JUMP JUMPDEST PUSH1 0x20 PUSH1 0x40 MLOAD DUP1 DUP4 SUB DUP2 DUP7 GAS STATICCALL ISZERO DUP1 ISZERO PUSH2 0x249 JUMPI RETURNDATASIZE PUSH0 DUP1 RETURNDATACOPY RETURNDATASIZE PUSH0 REVERT JUMPDEST POP POP POP POP PUSH1 0x40 MLOAD RETURNDATASIZE PUSH1 0x1F NOT PUSH1 0x1F DUP3 ADD AND DUP3 ADD DUP1 PUSH1 0x40 MSTORE POP DUP2 ADD SWAP1 PUSH2 0x26D SWAP2 SWAP1 PUSH2 0x1028 JUMP JUMPDEST SWAP1 POP PUSH0 DUP1 PUSH0 SWAP1 SLOAD SWAP1 PUSH2 0x100 EXP SWAP1 DIV PUSH20 0xFFFFFFFFFFFFFFFFFFFFFFFFFFFFFFFFFFFFFFFF AND PUSH20 0xFFFFFFFFFFFFFFFFFFFFFFFFFFFFFFFFFFFFFFFF AND PUSH4 0x6352211E DUP5 PUSH1 0x40 MLOAD DUP3 PUSH4 0xFFFFFFFF AND PUSH1 0xE0 SHL DUP2 MSTORE PUSH1 0x4 ADD PUSH2 0x2C9 SWAP2 SWAP1 PUSH2 0xD35 JUMP JUMPDEST PUSH1 0x20 PUSH1 0x40 MLOAD DUP1 DUP4 SUB DUP2 DUP7 GAS STATICCALL ISZERO DUP1 ISZERO PUSH2 0x2E4 JUMPI RETURNDATASIZE PUSH0 DUP1 RETURNDATACOPY RETURNDATASIZE PUSH0 REVERT JUMPDEST POP POP POP POP PUSH1 0x40 MLOAD RETURNDATASIZE PUSH1 0x1F NOT PUSH1 0x1F DUP3 ADD AND DUP3 ADD DUP1 PUSH1 0x40 MSTORE POP DUP2 ADD SWAP1 PUSH2 0x308 SWAP2 SWAP1 PUSH2 0x1067 JUMP JUMPDEST SWAP1 POP PUSH1 0x1 PUSH0 SWAP1 SLOAD SWAP1 PUSH2 0x100 EXP SWAP1 DIV PUSH20 0xFFFFFFFFFFFFFFFFFFFFFFFFFFFFFFFFFFFFFFFF AND PUSH20 0xFFFFFFFFFFFFFFFFFFFFFFFFFFFFFFFFFFFFFFFF AND PUSH4 0xA9059CBB DUP3 DUP5 PUSH1 0x40 MLOAD DUP4 PUSH4 0xFFFFFFFF AND PUSH1 0xE0 SHL DUP2 MSTORE PUSH1 0x4 ADD PUSH2 0x366 SWAP3 SWAP2 SWAP1 PUSH2 0x10A1 JUMP JUMPDEST PUSH1 0x20 PUSH1 0x40 MLOAD DUP1 DUP4 SUB DUP2 PUSH0 DUP8 GAS CALL ISZERO DUP1 ISZERO PUSH2 0x382 JUMPI RETURNDATASIZE PUSH0 DUP1 RETURNDATACOPY RETURNDATASIZE PUSH0 REVERT JUMPDEST POP POP POP POP PUSH1 0x40 MLOAD RETURNDATASIZE PUSH1 0x1F NOT PUSH1 0x1F DUP3 ADD AND DUP3 ADD DUP1 PUSH1 0x40 MSTORE POP DUP2 ADD SWAP1 PUSH2 0x3A6 SWAP2 SWAP1 PUSH2 0x10F2 JUMP JUMPDEST PUSH2 0x3E5 JUMPI PUSH1 0x40 MLOAD PUSH32 0x8C379A000000000000000000000000000000000000000000000000000000000 DUP2 MSTORE PUSH1 0x4 ADD PUSH2 0x3DC SWAP1 PUSH2 0x1177 JUMP JUMPDEST PUSH1 0x40 MLOAD DUP1 SWAP2 SUB SWAP1 REVERT JUMPDEST PUSH0 DUP1 SLOAD SWAP1 PUSH2 0x100 EXP SWAP1 DIV PUSH20 0xFFFFFFFFFFFFFFFFFFFFFFFFFFFFFFFFFFFFFFFF AND PUSH20 0xFFFFFFFFFFFFFFFFFFFFFFFFFFFFFFFFFFFFFFFF AND PUSH4 0x23B872DD PUSH0 DUP1 SLOAD SWAP1 PUSH2 0x100 EXP SWAP1 DIV PUSH20 0xFFFFFFFFFFFFFFFFFFFFFFFFFFFFFFFFFFFFFFFF AND PUSH20 0xFFFFFFFFFFFFFFFFFFFFFFFFFFFFFFFFFFFFFFFF AND PUSH4 0x6352211E DUP7 PUSH1 0x40 MLOAD DUP3 PUSH4 0xFFFFFFFF AND PUSH1 0xE0 SHL DUP2 MSTORE PUSH1 0x4 ADD PUSH2 0x478 SWAP2 SWAP1 PUSH2 0xD35 JUMP JUMPDEST PUSH1 0x20 PUSH1 0x40 MLOAD DUP1 DUP4 SUB DUP2 DUP7 GAS STATICCALL ISZERO DUP1 ISZERO PUSH2 0x493 JUMPI RETURNDATASIZE PUSH0 DUP1 RETURNDATACOPY RETURNDATASIZE PUSH0 REVERT JUMPDEST POP POP POP POP PUSH1 0x40 MLOAD RETURNDATASIZE PUSH1 0x1F NOT PUSH1 0x1F DUP3 ADD AND DUP3 ADD DUP1 PUSH1 0x40 MSTORE POP DUP2 ADD SWAP1 PUSH2 0x4B7 SWAP2 SWAP1 PUSH2 0x1067 JUMP JUMPDEST CALLER DUP7 PUSH1 0x40 MLOAD DUP5 PUSH4 0xFFFFFFFF AND PUSH1 0xE0 SHL DUP2 MSTORE PUSH1 0x4 ADD PUSH2 0x4D7 SWAP4 SWAP3 SWAP2 SWAP1 PUSH2 0x1195 JUMP JUMPDEST PUSH0 PUSH1 0x40 MLOAD DUP1 DUP4 SUB DUP2 PUSH0 DUP8 DUP1 EXTCODESIZE ISZERO DUP1 ISZERO PUSH2 0x4EE JUMPI PUSH0 DUP1 REVERT JUMPDEST POP GAS CALL ISZERO DUP1 ISZERO PUSH2 0x500 JUMPI RETURNDATASIZE PUSH0 DUP1 RETURNDATACOPY RETURNDATASIZE PUSH0 REVERT JUMPDEST POP POP POP POP DUP2 PUSH1 0x2 PUSH0 CALLER PUSH20 0xFFFFFFFFFFFFFFFFFFFFFFFFFFFFFFFFFFFFFFFF AND PUSH20 0xFFFFFFFFFFFFFFFFFFFFFFFFFFFFFFFFFFFFFFFF AND DUP2 MSTORE PUSH1 0x20 ADD SWAP1 DUP2 MSTORE PUSH1 0x20 ADD PUSH0 KECCAK256 PUSH0 DUP3 DUP3 SLOAD PUSH2 0x550 SWAP2 SWAP1 PUSH2 0x11F7 JUMP JUMPDEST SWAP3 POP POP DUP2 SWAP1 SSTORE POP DUP1 PUSH20 0xFFFFFFFFFFFFFFFFFFFFFFFFFFFFFFFFFFFFFFFF AND CALLER PUSH20 0xFFFFFFFFFFFFFFFFFFFFFFFFFFFFFFFFFFFFFFFF AND PUSH32 0x818CBCCD29A4CC9CBA1D68EF17773485DC04A1B257B9F57DDCDAFB4778A4CA3F DUP6 DUP6 PUSH1 0x40 MLOAD PUSH2 0x5B6 SWAP3 SWAP2 SWAP1 PUSH2 0x122A JUMP JUMPDEST PUSH1 0x40 MLOAD DUP1 SWAP2 SUB SWAP1 LOG3 POP POP POP JUMP JUMPDEST PUSH0 DUP1 PUSH0 SWAP1 SLOAD SWAP1 PUSH2 0x100 EXP SWAP1 DIV PUSH20 0xFFFFFFFFFFFFFFFFFFFFFFFFFFFFFFFFFFFFFFFF AND PUSH20 0xFFFFFFFFFFFFFFFFFFFFFFFFFFFFFFFFFFFFFFFF AND PUSH4 0xE7572230 DUP4 PUSH1 0x40 MLOAD DUP3 PUSH4 0xFFFFFFFF AND PUSH1 0xE0 SHL DUP2 MSTORE PUSH1 0x4 ADD PUSH2 0x61D SWAP2 SWAP1 PUSH2 0xD35 JUMP JUMPDEST PUSH1 0x20 PUSH1 0x40 MLOAD DUP1 DUP4 SUB DUP2 DUP7 GAS STATICCALL ISZERO DUP1 ISZERO PUSH2 0x638 JUMPI RETURNDATASIZE PUSH0 DUP1 RETURNDATACOPY RETURNDATASIZE PUSH0 REVERT JUMPDEST POP POP POP POP PUSH1 0x40 MLOAD RETURNDATASIZE PUSH1 0x1F NOT PUSH1 0x1F DUP3 ADD AND DUP3 ADD DUP1 PUSH1 0x40 MSTORE POP DUP2 ADD SWAP1 PUSH2 0x65C SWAP2 SWAP1 PUSH2 0x1028 JUMP JUMPDEST SWAP1 POP DUP1 PUSH1 0x1 PUSH0 SWAP1 SLOAD SWAP1 PUSH2 0x100 EXP SWAP1 DIV PUSH20 0xFFFFFFFFFFFFFFFFFFFFFFFFFFFFFFFFFFFFFFFF AND PUSH20 0xFFFFFFFFFFFFFFFFFFFFFFFFFFFFFFFFFFFFFFFF AND PUSH4 0x70A08231 CALLER PUSH1 0x40 MLOAD DUP3 PUSH4 0xFFFFFFFF AND PUSH1 0xE0 SHL DUP2 MSTORE PUSH1 0x4 ADD PUSH2 0x6B9 SWAP2 SWAP1 PUSH2 0x1251 JUMP JUMPDEST PUSH1 0x20 PUSH1 0x40 MLOAD DUP1 DUP4 SUB DUP2 DUP7 GAS STATICCALL ISZERO DUP1 ISZERO PUSH2 0x6D4 JUMPI RETURNDATASIZE PUSH0 DUP1 RETURNDATACOPY RETURNDATASIZE PUSH0 REVERT JUMPDEST POP POP POP POP PUSH1 0x40 MLOAD RETURNDATASIZE PUSH1 0x1F NOT PUSH1 0x1F DUP3 ADD AND DUP3 ADD DUP1 PUSH1 0x40 MSTORE POP DUP2 ADD SWAP1 PUSH2 0x6F8 SWAP2 SWAP1 PUSH2 0x1028 JUMP JUMPDEST LT ISZERO PUSH2 0x739 JUMPI PUSH1 0x40 MLOAD PUSH32 0x8C379A000000000000000000000000000000000000000000000000000000000 DUP2 MSTORE PUSH1 0x4 ADD PUSH2 0x730 SWAP1 PUSH2 0x12B4 JUMP JUMPDEST PUSH1 0x40 MLOAD DUP1 SWAP2 SUB SWAP1 REVERT JUMPDEST DUP1 PUSH1 0x1 PUSH0 SWAP1 SLOAD SWAP1 PUSH2 0x100 EXP SWAP1 DIV PUSH20 0xFFFFFFFFFFFFFFFFFFFFFFFFFFFFFFFFFFFFFFFF AND PUSH20 0xFFFFFFFFFFFFFFFFFFFFFFFFFFFFFFFFFFFFFFFF AND PUSH4 0xDD62ED3E CALLER ADDRESS PUSH1 0x40 MLOAD DUP4 PUSH4 0xFFFFFFFF AND PUSH1 0xE0 SHL DUP2 MSTORE PUSH1 0x4 ADD PUSH2 0x796 SWAP3 SWAP2 SWAP1 PUSH2 0x12D2 JUMP JUMPDEST PUSH1 0x20 PUSH1 0x40 MLOAD DUP1 DUP4 SUB DUP2 DUP7 GAS STATICCALL ISZERO DUP1 ISZERO PUSH2 0x7B1 JUMPI RETURNDATASIZE PUSH0 DUP1 RETURNDATACOPY RETURNDATASIZE PUSH0 REVERT JUMPDEST POP POP POP POP PUSH1 0x40 MLOAD RETURNDATASIZE PUSH1 0x1F NOT PUSH1 0x1F DUP3 ADD AND DUP3 ADD DUP1 PUSH1 0x40 MSTORE POP DUP2 ADD SWAP1 PUSH2 0x7D5 SWAP2 SWAP1 PUSH2 0x1028 JUMP JUMPDEST LT ISZERO PUSH2 0x816 JUMPI PUSH1 0x40 MLOAD PUSH32 0x8C379A000000000000000000000000000000000000000000000000000000000 DUP2 MSTORE PUSH1 0x4 ADD PUSH2 0x80D SWAP1 PUSH2 0x1343 JUMP JUMPDEST PUSH1 0x40 MLOAD DUP1 SWAP2 SUB SWAP1 REVERT JUMPDEST PUSH1 0x1 PUSH0 SWAP1 SLOAD SWAP1 PUSH2 0x100 EXP SWAP1 DIV PUSH20 0xFFFFFFFFFFFFFFFFFFFFFFFFFFFFFFFFFFFFFFFF AND PUSH20 0xFFFFFFFFFFFFFFFFFFFFFFFFFFFFFFFFFFFFFFFF AND PUSH4 0x23B872DD CALLER ADDRESS DUP5 PUSH1 0x40 MLOAD DUP5 PUSH4 0xFFFFFFFF AND PUSH1 0xE0 SHL DUP2 MSTORE PUSH1 0x4 ADD PUSH2 0x874 SWAP4 SWAP3 SWAP2 SWAP1 PUSH2 0x1195 JUMP JUMPDEST PUSH1 0x20 PUSH1 0x40 MLOAD DUP1 DUP4 SUB DUP2 PUSH0 DUP8 GAS CALL ISZERO DUP1 ISZERO PUSH2 0x890 JUMPI RETURNDATASIZE PUSH0 DUP1 RETURNDATACOPY RETURNDATASIZE PUSH0 REVERT JUMPDEST POP POP POP POP PUSH1 0x40 MLOAD RETURNDATASIZE PUSH1 0x1F NOT PUSH1 0x1F DUP3 ADD AND DUP3 ADD DUP1 PUSH1 0x40 MSTORE POP DUP2 ADD SWAP1 PUSH2 0x8B4 SWAP2 SWAP1 PUSH2 0x10F2 JUMP JUMPDEST PUSH2 0x8F3 JUMPI PUSH1 0x40 MLOAD PUSH32 0x8C379A000000000000000000000000000000000000000000000000000000000 DUP2 MSTORE PUSH1 0x4 ADD PUSH2 0x8EA SWAP1 PUSH2 0x13AB JUMP JUMPDEST PUSH1 0x40 MLOAD DUP1 SWAP2 SUB SWAP1 REVERT JUMPDEST DUP1 PUSH1 0x2 PUSH0 CALLER PUSH20 0xFFFFFFFFFFFFFFFFFFFFFFFFFFFFFFFFFFFFFFFF AND PUSH20 0xFFFFFFFFFFFFFFFFFFFFFFFFFFFFFFFFFFFFFFFF AND DUP2 MSTORE PUSH1 0x20 ADD SWAP1 DUP2 MSTORE PUSH1 0x20 ADD PUSH0 KECCAK256 PUSH0 DUP3 DUP3 SLOAD PUSH2 0x93F SWAP2 SWAP1 PUSH2 0x13C9 JUMP JUMPDEST SWAP3 POP POP DUP2 SWAP1 SSTORE POP POP POP JUMP JUMPDEST PUSH1 0x2 PUSH1 0x20 MSTORE DUP1 PUSH0 MSTORE PUSH1 0x40 PUSH0 KECCAK256 PUSH0 SWAP2 POP SWAP1 POP SLOAD DUP2 JUMP JUMPDEST PUSH0 DUP1 SLOAD SWAP1 PUSH2 0x100 EXP SWAP1 DIV PUSH20 0xFFFFFFFFFFFFFFFFFFFFFFFFFFFFFFFFFFFFFFFF AND PUSH20 0xFFFFFFFFFFFFFFFFFFFFFFFFFFFFFFFFFFFFFFFF AND PUSH4 0x85836223 DUP4 DUP4 PUSH1 0x40 MLOAD DUP4 PUSH4 0xFFFFFFFF AND PUSH1 0xE0 SHL DUP2 MSTORE PUSH1 0x4 ADD PUSH2 0x9B9 SWAP3 SWAP2 SWAP1 PUSH2 0x10A1 JUMP JUMPDEST PUSH0 PUSH1 0x40 MLOAD DUP1 DUP4 SUB DUP2 PUSH0 DUP8 DUP1 EXTCODESIZE ISZERO DUP1 ISZERO PUSH2 0x9D0 JUMPI PUSH0 DUP1 REVERT JUMPDEST POP GAS CALL ISZERO DUP1 ISZERO PUSH2 0x9E2 JUMPI RETURNDATASIZE PUSH0 DUP1 RETURNDATACOPY RETURNDATASIZE PUSH0 REVERT JUMPDEST POP POP POP POP POP POP JUMP JUMPDEST PUSH0 DUP1 SLOAD SWAP1 PUSH2 0x100 EXP SWAP1 DIV PUSH20 0xFFFFFFFFFFFFFFFFFFFFFFFFFFFFFFFFFFFFFFFF AND PUSH20 0xFFFFFFFFFFFFFFFFFFFFFFFFFFFFFFFFFFFFFFFF AND PUSH4 0x2040E685 DUP5 DUP5 DUP5 PUSH1 0x40 MLOAD DUP5 PUSH4 0xFFFFFFFF AND PUSH1 0xE0 SHL DUP2 MSTORE PUSH1 0x4 ADD PUSH2 0xA46 SWAP4 SWAP3 SWAP2 SWAP1 PUSH2 0x1466 JUMP JUMPDEST PUSH0 PUSH1 0x40 MLOAD DUP1 DUP4 SUB DUP2 PUSH0 DUP8 DUP1 EXTCODESIZE ISZERO DUP1 ISZERO PUSH2 0xA5D JUMPI PUSH0 DUP1 REVERT JUMPDEST POP GAS CALL ISZERO DUP1 ISZERO PUSH2 0xA6F JUMPI RETURNDATASIZE PUSH0 DUP1 RETURNDATACOPY RETURNDATASIZE PUSH0 REVERT JUMPDEST POP POP POP POP POP POP POP JUMP JUMPDEST PUSH0 DUP1 PUSH0 SWAP1 SLOAD SWAP1 PUSH2 0x100 EXP SWAP1 DIV PUSH20 0xFFFFFFFFFFFFFFFFFFFFFFFFFFFFFFFFFFFFFFFF AND PUSH20 0xFFFFFFFFFFFFFFFFFFFFFFFFFFFFFFFFFFFFFFFF AND PUSH4 0xE985E9C5 CALLER ADDRESS PUSH1 0x40 MLOAD DUP4 PUSH4 0xFFFFFFFF AND PUSH1 0xE0 SHL DUP2 MSTORE PUSH1 0x4 ADD PUSH2 0xAD4 SWAP3 SWAP2 SWAP1 PUSH2 0x12D2 JUMP JUMPDEST PUSH1 0x20 PUSH1 0x40 MLOAD DUP1 DUP4 SUB DUP2 DUP7 GAS STATICCALL ISZERO DUP1 ISZERO PUSH2 0xAEF JUMPI RETURNDATASIZE PUSH0 DUP1 RETURNDATACOPY RETURNDATASIZE PUSH0 REVERT JUMPDEST POP POP POP POP PUSH1 0x40 MLOAD RETURNDATASIZE PUSH1 0x1F NOT PUSH1 0x1F DUP3 ADD AND DUP3 ADD DUP1 PUSH1 0x40 MSTORE POP DUP2 ADD SWAP1 PUSH2 0xB13 SWAP2 SWAP1 PUSH2 0x10F2 JUMP JUMPDEST SWAP1 POP SWAP1 JUMP JUMPDEST PUSH0 PUSH1 0x2 PUSH0 DUP4 PUSH20 0xFFFFFFFFFFFFFFFFFFFFFFFFFFFFFFFFFFFFFFFF AND PUSH20 0xFFFFFFFFFFFFFFFFFFFFFFFFFFFFFFFFFFFFFFFF AND DUP2 MSTORE PUSH1 0x20 ADD SWAP1 DUP2 MSTORE PUSH1 0x20 ADD PUSH0 KECCAK256 SLOAD SWAP1 POP SWAP2 SWAP1 POP JUMP JUMPDEST PUSH1 0x1 PUSH0 SWAP1 SLOAD SWAP1 PUSH2 0x100 EXP SWAP1 DIV PUSH20 0xFFFFFFFFFFFFFFFFFFFFFFFFFFFFFFFFFFFFFFFF AND DUP2 JUMP JUMPDEST PUSH0 DUP1 SLOAD SWAP1 PUSH2 0x100 EXP SWAP1 DIV PUSH20 0xFFFFFFFFFFFFFFFFFFFFFFFFFFFFFFFFFFFFFFFF AND PUSH20 0xFFFFFFFFFFFFFFFFFFFFFFFFFFFFFFFFFFFFFFFF AND PUSH4 0x29D6724E CALLER ADDRESS PUSH1 0x1 PUSH1 0x40 MLOAD DUP5 PUSH4 0xFFFFFFFF AND PUSH1 0xE0 SHL DUP2 MSTORE PUSH1 0x4 ADD PUSH2 0xBE0 SWAP4 SWAP3 SWAP2 SWAP1 PUSH2 0x14A2 JUMP JUMPDEST PUSH0 PUSH1 0x40 MLOAD DUP1 DUP4 SUB DUP2 PUSH0 DUP8 DUP1 EXTCODESIZE ISZERO DUP1 ISZERO PUSH2 0xBF7 JUMPI PUSH0 DUP1 REVERT JUMPDEST POP GAS CALL ISZERO DUP1 ISZERO PUSH2 0xC09 JUMPI RETURNDATASIZE PUSH0 DUP1 RETURNDATACOPY RETURNDATASIZE PUSH0 REVERT JUMPDEST POP POP POP POP JUMP JUMPDEST PUSH0 DUP1 SLOAD SWAP1 PUSH2 0x100 EXP SWAP1 DIV PUSH20 0xFFFFFFFFFFFFFFFFFFFFFFFFFFFFFFFFFFFFFFFF AND DUP2 JUMP JUMPDEST PUSH0 PUSH1 0x40 MLOAD SWAP1 POP SWAP1 JUMP JUMPDEST PUSH0 DUP1 REVERT JUMPDEST PUSH0 DUP1 REVERT JUMPDEST PUSH0 DUP2 SWAP1 POP SWAP2 SWAP1 POP JUMP JUMPDEST PUSH2 0xC55 DUP2 PUSH2 0xC43 JUMP JUMPDEST DUP2 EQ PUSH2 0xC5F JUMPI PUSH0 DUP1 REVERT JUMPDEST POP JUMP JUMPDEST PUSH0 DUP2 CALLDATALOAD SWAP1 POP PUSH2 0xC70 DUP2 PUSH2 0xC4C JUMP JUMPDEST SWAP3 SWAP2 POP POP JUMP JUMPDEST PUSH0 PUSH1 0x20 DUP3 DUP5 SUB SLT ISZERO PUSH2 0xC8B JUMPI PUSH2 0xC8A PUSH2 0xC3B JUMP JUMPDEST JUMPDEST PUSH0 PUSH2 0xC98 DUP5 DUP3 DUP6 ADD PUSH2 0xC62 JUMP JUMPDEST SWAP2 POP POP SWAP3 SWAP2 POP POP JUMP JUMPDEST PUSH0 PUSH20 0xFFFFFFFFFFFFFFFFFFFFFFFFFFFFFFFFFFFFFFFF DUP3 AND SWAP1 POP SWAP2 SWAP1 POP JUMP JUMPDEST PUSH0 PUSH2 0xCCA DUP3 PUSH2 0xCA1 JUMP JUMPDEST SWAP1 POP SWAP2 SWAP1 POP JUMP JUMPDEST PUSH2 0xCDA DUP2 PUSH2 0xCC0 JUMP JUMPDEST DUP2 EQ PUSH2 0xCE4 JUMPI PUSH0 DUP1 REVERT JUMPDEST POP JUMP JUMPDEST PUSH0 DUP2 CALLDATALOAD SWAP1 POP PUSH2 0xCF5 DUP2 PUSH2 0xCD1 JUMP JUMPDEST SWAP3 SWAP2 POP POP JUMP JUMPDEST PUSH0 PUSH1 0x20 DUP3 DUP5 SUB SLT ISZERO PUSH2 0xD10 JUMPI PUSH2 0xD0F PUSH2 0xC3B JUMP JUMPDEST JUMPDEST PUSH0 PUSH2 0xD1D DUP5 DUP3 DUP6 ADD PUSH2 0xCE7 JUMP JUMPDEST SWAP2 POP POP SWAP3 SWAP2 POP POP JUMP JUMPDEST PUSH2 0xD2F DUP2 PUSH2 0xC43 JUMP JUMPDEST DUP3 MSTORE POP POP JUMP JUMPDEST PUSH0 PUSH1 0x20 DUP3 ADD SWAP1 POP PUSH2 0xD48 PUSH0 DUP4 ADD DUP5 PUSH2 0xD26 JUMP JUMPDEST SWAP3 SWAP2 POP POP JUMP JUMPDEST PUSH0 DUP1 PUSH1 0x40 DUP4 DUP6 SUB SLT ISZERO PUSH2 0xD64 JUMPI PUSH2 0xD63 PUSH2 0xC3B JUMP JUMPDEST JUMPDEST PUSH0 PUSH2 0xD71 DUP6 DUP3 DUP7 ADD PUSH2 0xCE7 JUMP JUMPDEST SWAP3 POP POP PUSH1 0x20 PUSH2 0xD82 DUP6 DUP3 DUP7 ADD PUSH2 0xC62 JUMP JUMPDEST SWAP2 POP POP SWAP3 POP SWAP3 SWAP1 POP JUMP JUMPDEST PUSH0 DUP1 REVERT JUMPDEST PUSH0 DUP1 REVERT JUMPDEST PUSH0 PUSH1 0x1F NOT PUSH1 0x1F DUP4 ADD AND SWAP1 POP SWAP2 SWAP1 POP JUMP JUMPDEST PUSH32 0x4E487B7100000000000000000000000000000000000000000000000000000000 PUSH0 MSTORE PUSH1 0x41 PUSH1 0x4 MSTORE PUSH1 0x24 PUSH0 REVERT JUMPDEST PUSH2 0xDDA DUP3 PUSH2 0xD94 JUMP JUMPDEST DUP2 ADD DUP2 DUP2 LT PUSH8 0xFFFFFFFFFFFFFFFF DUP3 GT OR ISZERO PUSH2 0xDF9 JUMPI PUSH2 0xDF8 PUSH2 0xDA4 JUMP JUMPDEST JUMPDEST DUP1 PUSH1 0x40 MSTORE POP POP POP JUMP JUMPDEST PUSH0 PUSH2 0xE0B PUSH2 0xC32 JUMP JUMPDEST SWAP1 POP PUSH2 0xE17 DUP3 DUP3 PUSH2 0xDD1 JUMP JUMPDEST SWAP2 SWAP1 POP JUMP JUMPDEST PUSH0 PUSH8 0xFFFFFFFFFFFFFFFF DUP3 GT ISZERO PUSH2 0xE36 JUMPI PUSH2 0xE35 PUSH2 0xDA4 JUMP JUMPDEST JUMPDEST PUSH2 0xE3F DUP3 PUSH2 0xD94 JUMP JUMPDEST SWAP1 POP PUSH1 0x20 DUP2 ADD SWAP1 POP SWAP2 SWAP1 POP JUMP JUMPDEST DUP3 DUP2 DUP4 CALLDATACOPY PUSH0 DUP4 DUP4 ADD MSTORE POP POP POP JUMP JUMPDEST PUSH0 PUSH2 0xE6C PUSH2 0xE67 DUP5 PUSH2 0xE1C JUMP JUMPDEST PUSH2 0xE02 JUMP JUMPDEST SWAP1 POP DUP3 DUP2 MSTORE PUSH1 0x20 DUP2 ADD DUP5 DUP5 DUP5 ADD GT ISZERO PUSH2 0xE88 JUMPI PUSH2 0xE87 PUSH2 0xD90 JUMP JUMPDEST JUMPDEST PUSH2 0xE93 DUP5 DUP3 DUP6 PUSH2 0xE4C JUMP JUMPDEST POP SWAP4 SWAP3 POP POP POP JUMP JUMPDEST PUSH0 DUP3 PUSH1 0x1F DUP4 ADD SLT PUSH2 0xEAF JUMPI PUSH2 0xEAE PUSH2 0xD8C JUMP JUMPDEST JUMPDEST DUP2 CALLDATALOAD PUSH2 0xEBF DUP5 DUP3 PUSH1 0x20 DUP7 ADD PUSH2 0xE5A JUMP JUMPDEST SWAP2 POP POP SWAP3 SWAP2 POP POP JUMP JUMPDEST PUSH0 DUP1 PUSH0 PUSH1 0x60 DUP5 DUP7 SUB SLT ISZERO PUSH2 0xEDF JUMPI PUSH2 0xEDE PUSH2 0xC3B JUMP JUMPDEST JUMPDEST PUSH0 PUSH2 0xEEC DUP7 DUP3 DUP8 ADD PUSH2 0xCE7 JUMP JUMPDEST SWAP4 POP POP PUSH1 0x20 DUP5 ADD CALLDATALOAD PUSH8 0xFFFFFFFFFFFFFFFF DUP2 GT ISZERO PUSH2 0xF0D JUMPI PUSH2 0xF0C PUSH2 0xC3F JUMP JUMPDEST JUMPDEST PUSH2 0xF19 DUP7 DUP3 DUP8 ADD PUSH2 0xE9B JUMP JUMPDEST SWAP3 POP POP PUSH1 0x40 PUSH2 0xF2A DUP7 DUP3 DUP8 ADD PUSH2 0xC62 JUMP JUMPDEST SWAP2 POP POP SWAP3 POP SWAP3 POP SWAP3 JUMP JUMPDEST PUSH0 DUP2 ISZERO ISZERO SWAP1 POP SWAP2 SWAP1 POP JUMP JUMPDEST PUSH2 0xF48 DUP2 PUSH2 0xF34 JUMP JUMPDEST DUP3 MSTORE POP POP JUMP JUMPDEST PUSH0 PUSH1 0x20 DUP3 ADD SWAP1 POP PUSH2 0xF61 PUSH0 DUP4 ADD DUP5 PUSH2 0xF3F JUMP JUMPDEST SWAP3 SWAP2 POP POP JUMP JUMPDEST PUSH0 DUP2 SWAP1 POP SWAP2 SWAP1 POP JUMP JUMPDEST PUSH0 PUSH2 0xF8A PUSH2 0xF85 PUSH2 0xF80 DUP5 PUSH2 0xCA1 JUMP JUMPDEST PUSH2 0xF67 JUMP JUMPDEST PUSH2 0xCA1 JUMP JUMPDEST SWAP1 POP SWAP2 SWAP1 POP JUMP JUMPDEST PUSH0 PUSH2 0xF9B DUP3 PUSH2 0xF70 JUMP JUMPDEST SWAP1 POP SWAP2 SWAP1 POP JUMP JUMPDEST PUSH0 PUSH2 0xFAC DUP3 PUSH2 0xF91 JUMP JUMPDEST SWAP1 POP SWAP2 SWAP1 POP JUMP JUMPDEST PUSH2 0xFBC DUP2 PUSH2 0xFA2 JUMP JUMPDEST DUP3 MSTORE POP POP JUMP JUMPDEST PUSH0 PUSH1 0x20 DUP3 ADD SWAP1 POP PUSH2 0xFD5 PUSH0 DUP4 ADD DUP5 PUSH2 0xFB3 JUMP JUMPDEST SWAP3 SWAP2 POP POP JUMP JUMPDEST PUSH0 PUSH2 0xFE5 DUP3 PUSH2 0xF91 JUMP JUMPDEST SWAP1 POP SWAP2 SWAP1 POP JUMP JUMPDEST PUSH2 0xFF5 DUP2 PUSH2 0xFDB JUMP JUMPDEST DUP3 MSTORE POP POP JUMP JUMPDEST PUSH0 PUSH1 0x20 DUP3 ADD SWAP1 POP PUSH2 0x100E PUSH0 DUP4 ADD DUP5 PUSH2 0xFEC JUMP JUMPDEST SWAP3 SWAP2 POP POP JUMP JUMPDEST PUSH0 DUP2 MLOAD SWAP1 POP PUSH2 0x1022 DUP2 PUSH2 0xC4C JUMP JUMPDEST SWAP3 SWAP2 POP POP JUMP JUMPDEST PUSH0 PUSH1 0x20 DUP3 DUP5 SUB SLT ISZERO PUSH2 0x103D JUMPI PUSH2 0x103C PUSH2 0xC3B JUMP JUMPDEST JUMPDEST PUSH0 PUSH2 0x104A DUP5 DUP3 DUP6 ADD PUSH2 0x1014 JUMP JUMPDEST SWAP2 POP POP SWAP3 SWAP2 POP POP JUMP JUMPDEST PUSH0 DUP2 MLOAD SWAP1 POP PUSH2 0x1061 DUP2 PUSH2 0xCD1 JUMP JUMPDEST SWAP3 SWAP2 POP POP JUMP JUMPDEST PUSH0 PUSH1 0x20 DUP3 DUP5 SUB SLT ISZERO PUSH2 0x107C JUMPI PUSH2 0x107B PUSH2 0xC3B JUMP JUMPDEST JUMPDEST PUSH0 PUSH2 0x1089 DUP5 DUP3 DUP6 ADD PUSH2 0x1053 JUMP JUMPDEST SWAP2 POP POP SWAP3 SWAP2 POP POP JUMP JUMPDEST PUSH2 0x109B DUP2 PUSH2 0xCC0 JUMP JUMPDEST DUP3 MSTORE POP POP JUMP JUMPDEST PUSH0 PUSH1 0x40 DUP3 ADD SWAP1 POP PUSH2 0x10B4 PUSH0 DUP4 ADD DUP6 PUSH2 0x1092 JUMP JUMPDEST PUSH2 0x10C1 PUSH1 0x20 DUP4 ADD DUP5 PUSH2 0xD26 JUMP JUMPDEST SWAP4 SWAP3 POP POP POP JUMP JUMPDEST PUSH2 0x10D1 DUP2 PUSH2 0xF34 JUMP JUMPDEST DUP2 EQ PUSH2 0x10DB JUMPI PUSH0 DUP1 REVERT JUMPDEST POP JUMP JUMPDEST PUSH0 DUP2 MLOAD SWAP1 POP PUSH2 0x10EC DUP2 PUSH2 0x10C8 JUMP JUMPDEST SWAP3 SWAP2 POP POP JUMP JUMPDEST PUSH0 PUSH1 0x20 DUP3 DUP5 SUB SLT ISZERO PUSH2 0x1107 JUMPI PUSH2 0x1106 PUSH2 0xC3B JUMP JUMPDEST JUMPDEST PUSH0 PUSH2 0x1114 DUP5 DUP3 DUP6 ADD PUSH2 0x10DE JUMP JUMPDEST SWAP2 POP POP SWAP3 SWAP2 POP POP JUMP JUMPDEST PUSH0 DUP3 DUP3 MSTORE PUSH1 0x20 DUP3 ADD SWAP1 POP SWAP3 SWAP2 POP POP JUMP JUMPDEST PUSH32 0x546F6B656E207472616E7366657220746F2073656C6C6572206661696C656400 PUSH0 DUP3 ADD MSTORE POP JUMP JUMPDEST PUSH0 PUSH2 0x1161 PUSH1 0x1F DUP4 PUSH2 0x111D JUMP JUMPDEST SWAP2 POP PUSH2 0x116C DUP3 PUSH2 0x112D JUMP JUMPDEST PUSH1 0x20 DUP3 ADD SWAP1 POP SWAP2 SWAP1 POP JUMP JUMPDEST PUSH0 PUSH1 0x20 DUP3 ADD SWAP1 POP DUP2 DUP2 SUB PUSH0 DUP4 ADD MSTORE PUSH2 0x118E DUP2 PUSH2 0x1155 JUMP JUMPDEST SWAP1 POP SWAP2 SWAP1 POP JUMP JUMPDEST PUSH0 PUSH1 0x60 DUP3 ADD SWAP1 POP PUSH2 0x11A8 PUSH0 DUP4 ADD DUP7 PUSH2 0x1092 JUMP JUMPDEST PUSH2 0x11B5 PUSH1 0x20 DUP4 ADD DUP6 PUSH2 0x1092 JUMP JUMPDEST PUSH2 0x11C2 PUSH1 0x40 DUP4 ADD DUP5 PUSH2 0xD26 JUMP JUMPDEST SWAP5 SWAP4 POP POP POP POP JUMP JUMPDEST PUSH32 0x4E487B7100000000000000000000000000000000000000000000000000000000 PUSH0 MSTORE PUSH1 0x11 PUSH1 0x4 MSTORE PUSH1 0x24 PUSH0 REVERT JUMPDEST PUSH0 PUSH2 0x1201 DUP3 PUSH2 0xC43 JUMP JUMPDEST SWAP2 POP PUSH2 0x120C DUP4 PUSH2 0xC43 JUMP JUMPDEST SWAP3 POP DUP3 DUP3 SUB SWAP1 POP DUP2 DUP2 GT ISZERO PUSH2 0x1224 JUMPI PUSH2 0x1223 PUSH2 0x11CA JUMP JUMPDEST JUMPDEST SWAP3 SWAP2 POP POP JUMP JUMPDEST PUSH0 PUSH1 0x40 DUP3 ADD SWAP1 POP PUSH2 0x123D PUSH0 DUP4 ADD DUP6 PUSH2 0xD26 JUMP JUMPDEST PUSH2 0x124A PUSH1 0x20 DUP4 ADD DUP5 PUSH2 0xD26 JUMP JUMPDEST SWAP4 SWAP3 POP POP POP JUMP JUMPDEST PUSH0 PUSH1 0x20 DUP3 ADD SWAP1 POP PUSH2 0x1264 PUSH0 DUP4 ADD DUP5 PUSH2 0x1092 JUMP JUMPDEST SWAP3 SWAP2 POP POP JUMP JUMPDEST PUSH32 0x4E6F7420656E6F75676820546F6B656E73000000000000000000000000000000 PUSH0 DUP3 ADD MSTORE POP JUMP JUMPDEST PUSH0 PUSH2 0x129E PUSH1 0x11 DUP4 PUSH2 0x111D JUMP JUMPDEST SWAP2 POP PUSH2 0x12A9 DUP3 PUSH2 0x126A JUMP JUMPDEST PUSH1 0x20 DUP3 ADD SWAP1 POP SWAP2 SWAP1 POP JUMP JUMPDEST PUSH0 PUSH1 0x20 DUP3 ADD SWAP1 POP DUP2 DUP2 SUB PUSH0 DUP4 ADD MSTORE PUSH2 0x12CB DUP2 PUSH2 0x1292 JUMP JUMPDEST SWAP1 POP SWAP2 SWAP1 POP JUMP JUMPDEST PUSH0 PUSH1 0x40 DUP3 ADD SWAP1 POP PUSH2 0x12E5 PUSH0 DUP4 ADD DUP6 PUSH2 0x1092 JUMP JUMPDEST PUSH2 0x12F2 PUSH1 0x20 DUP4 ADD DUP5 PUSH2 0x1092 JUMP JUMPDEST SWAP4 SWAP3 POP POP POP JUMP JUMPDEST PUSH32 0x4E6F7420656E6F75676820616C6C6F77616E6365000000000000000000000000 PUSH0 DUP3 ADD MSTORE POP JUMP JUMPDEST PUSH0 PUSH2 0x132D PUSH1 0x14 DUP4 PUSH2 0x111D JUMP JUMPDEST SWAP2 POP PUSH2 0x1338 DUP3 PUSH2 0x12F9 JUMP JUMPDEST PUSH1 0x20 DUP3 ADD SWAP1 POP SWAP2 SWAP1 POP JUMP JUMPDEST PUSH0 PUSH1 0x20 DUP3 ADD SWAP1 POP DUP2 DUP2 SUB PUSH0 DUP4 ADD MSTORE PUSH2 0x135A DUP2 PUSH2 0x1321 JUMP JUMPDEST SWAP1 POP SWAP2 SWAP1 POP JUMP JUMPDEST PUSH32 0x546F6B656E207472616E73666572206661696C65640000000000000000000000 PUSH0 DUP3 ADD MSTORE POP JUMP JUMPDEST PUSH0 PUSH2 0x1395 PUSH1 0x15 DUP4 PUSH2 0x111D JUMP JUMPDEST SWAP2 POP PUSH2 0x13A0 DUP3 PUSH2 0x1361 JUMP JUMPDEST PUSH1 0x20 DUP3 ADD SWAP1 POP SWAP2 SWAP1 POP JUMP JUMPDEST PUSH0 PUSH1 0x20 DUP3 ADD SWAP1 POP DUP2 DUP2 SUB PUSH0 DUP4 ADD MSTORE PUSH2 0x13C2 DUP2 PUSH2 0x1389 JUMP JUMPDEST SWAP1 POP SWAP2 SWAP1 POP JUMP JUMPDEST PUSH0 PUSH2 0x13D3 DUP3 PUSH2 0xC43 JUMP JUMPDEST SWAP2 POP PUSH2 0x13DE DUP4 PUSH2 0xC43 JUMP JUMPDEST SWAP3 POP DUP3 DUP3 ADD SWAP1 POP DUP1 DUP3 GT ISZERO PUSH2 0x13F6 JUMPI PUSH2 0x13F5 PUSH2 0x11CA JUMP JUMPDEST JUMPDEST SWAP3 SWAP2 POP POP JUMP JUMPDEST PUSH0 DUP2 MLOAD SWAP1 POP SWAP2 SWAP1 POP JUMP JUMPDEST PUSH0 JUMPDEST DUP4 DUP2 LT ISZERO PUSH2 0x1423 JUMPI DUP1 DUP3 ADD MLOAD DUP2 DUP5 ADD MSTORE PUSH1 0x20 DUP2 ADD SWAP1 POP PUSH2 0x1408 JUMP JUMPDEST PUSH0 DUP5 DUP5 ADD MSTORE POP POP POP POP JUMP JUMPDEST PUSH0 PUSH2 0x1438 DUP3 PUSH2 0x13FC JUMP JUMPDEST PUSH2 0x1442 DUP2 DUP6 PUSH2 0x111D JUMP JUMPDEST SWAP4 POP PUSH2 0x1452 DUP2 DUP6 PUSH1 0x20 DUP7 ADD PUSH2 0x1406 JUMP JUMPDEST PUSH2 0x145B DUP2 PUSH2 0xD94 JUMP JUMPDEST DUP5 ADD SWAP2 POP POP SWAP3 SWAP2 POP POP JUMP JUMPDEST PUSH0 PUSH1 0x60 DUP3 ADD SWAP1 POP PUSH2 0x1479 PUSH0 DUP4 ADD DUP7 PUSH2 0x1092 JUMP JUMPDEST DUP2 DUP2 SUB PUSH1 0x20 DUP4 ADD MSTORE PUSH2 0x148B DUP2 DUP6 PUSH2 0x142E JUMP JUMPDEST SWAP1 POP PUSH2 0x149A PUSH1 0x40 DUP4 ADD DUP5 PUSH2 0xD26 JUMP JUMPDEST SWAP5 SWAP4 POP POP POP POP JUMP JUMPDEST PUSH0 PUSH1 0x60 DUP3 ADD SWAP1 POP PUSH2 0x14B5 PUSH0 DUP4 ADD DUP7 PUSH2 0x1092 JUMP JUMPDEST PUSH2 0x14C2 PUSH1 0x20 DUP4 ADD DUP6 PUSH2 0x1092 JUMP JUMPDEST PUSH2 0x14CF PUSH1 0x40 DUP4 ADD DUP5 PUSH2 0xF3F JUMP JUMPDEST SWAP5 SWAP4 POP POP POP POP JUMP INVALID LOG2 PUSH5 0x6970667358 0x22 SLT KECCAK256 SMOD EXP 0xCF SHL DUP13 0xF9 0x4A 0xB5 CALLDATACOPY 0x2C STATICCALL PUSH18 0x5D61DFD3223F8C8CE76BFD8553CED994372E 0xB9 PUSH9 0x64736F6C6343000814 STOP CALLER "
		},
		"gasEstimates": {
			"creation": {
				"codeDepositCost": "1077800",
				"executionCost": "infinite",
				"totalCost": "infinite"
			},
			"external": {
				"CAStorage(address)": "2847",
				"NFTBuySuccess(uint256)": "infinite",
				"_sellNFTmint(address,string,uint256)": "infinite",
				"_setApprovalForToken(address,uint256)": "infinite",
				"buyNFT(uint256)": "infinite",
				"gameToken()": "infinite",
				"getStoredTokens(address)": "2851",
				"sellNFT()": "infinite",
				"setApprovalForAll()": "infinite",
				"spaceNFT()": "infinite"
			}
		},
		"methodIdentifiers": {
			"CAStorage(address)": "8361c8ac",
			"NFTBuySuccess(uint256)": "493dda80",
			"_sellNFTmint(address,string,uint256)": "b0323a18",
			"_setApprovalForToken(address,uint256)": "8efc22ec",
			"buyNFT(uint256)": "51ed8288",
			"gameToken()": "c3dfdae6",
			"getStoredTokens(address)": "c2b10dda",
			"sellNFT()": "b86f160d",
			"setApprovalForAll()": "cc9562a5",
			"spaceNFT()": "f1a386ad"
		}
	},
	"abi": [
		{
			"inputs": [
				{
					"internalType": "address",
					"name": "spaceNFTCA",
					"type": "address"
				},
				{
					"internalType": "address",
					"name": "gameTokenCA",
					"type": "address"
				}
			],
			"stateMutability": "nonpayable",
			"type": "constructor"
		},
		{
			"anonymous": false,
			"inputs": [
				{
					"indexed": true,
					"internalType": "address",
					"name": "buyer",
					"type": "address"
				},
				{
					"indexed": false,
					"internalType": "uint256",
					"name": "tokenId",
					"type": "uint256"
				},
				{
					"indexed": false,
					"internalType": "uint256",
					"name": "price",
					"type": "uint256"
				},
				{
					"indexed": true,
					"internalType": "address",
					"name": "seller",
					"type": "address"
				}
			],
			"name": "PurchaseSuccessful",
			"type": "event"
		},
		{
			"inputs": [
				{
					"internalType": "address",
					"name": "",
					"type": "address"
				}
			],
			"name": "CAStorage",
			"outputs": [
				{
					"internalType": "uint256",
					"name": "",
					"type": "uint256"
				}
			],
			"stateMutability": "view",
			"type": "function"
		},
		{
			"inputs": [
				{
					"internalType": "uint256",
					"name": "tokenId",
					"type": "uint256"
				}
			],
			"name": "NFTBuySuccess",
			"outputs": [],
			"stateMutability": "nonpayable",
			"type": "function"
		},
		{
			"inputs": [
				{
					"internalType": "address",
					"name": "user",
					"type": "address"
				},
				{
					"internalType": "string",
					"name": "url",
					"type": "string"
				},
				{
					"internalType": "uint256",
					"name": "price",
					"type": "uint256"
				}
			],
			"name": "_sellNFTmint",
			"outputs": [],
			"stateMutability": "nonpayable",
			"type": "function"
		},
		{
			"inputs": [
				{
					"internalType": "address",
					"name": "to",
					"type": "address"
				},
				{
					"internalType": "uint256",
					"name": "tokenId",
					"type": "uint256"
				}
			],
			"name": "_setApprovalForToken",
			"outputs": [],
			"stateMutability": "nonpayable",
			"type": "function"
		},
		{
			"inputs": [
				{
					"internalType": "uint256",
					"name": "tokenId",
					"type": "uint256"
				}
			],
			"name": "buyNFT",
			"outputs": [],
			"stateMutability": "nonpayable",
			"type": "function"
		},
		{
			"inputs": [],
			"name": "gameToken",
			"outputs": [
				{
					"internalType": "contract GameToken",
					"name": "",
					"type": "address"
				}
			],
			"stateMutability": "view",
			"type": "function"
		},
		{
			"inputs": [
				{
					"internalType": "address",
					"name": "userAddress",
					"type": "address"
				}
			],
			"name": "getStoredTokens",
			"outputs": [
				{
					"internalType": "uint256",
					"name": "",
					"type": "uint256"
				}
			],
			"stateMutability": "view",
			"type": "function"
		},
		{
			"inputs": [],
			"name": "sellNFT",
			"outputs": [
				{
					"internalType": "bool",
					"name": "",
					"type": "bool"
				}
			],
			"stateMutability": "view",
			"type": "function"
		},
		{
			"inputs": [],
			"name": "setApprovalForAll",
			"outputs": [],
			"stateMutability": "nonpayable",
			"type": "function"
		},
		{
			"inputs": [],
			"name": "spaceNFT",
			"outputs": [
				{
					"internalType": "contract SpaceNFT",
					"name": "",
					"type": "address"
				}
			],
			"stateMutability": "view",
			"type": "function"
		}
	]
}